:020000040800F2
:10000000000A0020550200089D340008F131000864
:10001000993400084D0400088541000800000000E4
:10002000000000000000000000000000013800088F
:1000300029060008000000000D35000859380008A6
:100040006F0200086F0200086F0200086F020008CC
:100050006F0200086F0200086F0200086F020008BC
:100060006F0200086F0200086F0200086F020008AC
:100070006F0200086F0200086F0200086F0200089C
:1000800051040008610400086F0200086F020008B4
:100090006F0200086F0200086F0200086F0200087C
:1000A0006F0200086F0200086F0200086F0200086C
:1000B0006F0200086F0200086F0200086F0200085C
:1000C0006F0200086F0200086F0200086F0200084C
:1000D0006F020008E5400008F54000086F020008C4
:1000E0006F0200086F0200086F0200086F0200082C
:1000F0006F0200086F0200086F0200086F0200081C
:100100006F0200086F0200086F0200086F0200080B
:100110006F0200086F0200086F0200086F020008FB
:100120006F0200086F020008710400086F020008E7
:100130006F02000800000000000000006F020008CD
:100140006F0200086F0200086F0200086F020008CB
:100150006F0200086F020008810400086F020008A7
:100160006F0200086F0200086F0200086F020008AB
:100170006F0200086F02000800000000000000008D
:100180006F0200086F02000800F002F800F052F859
:1001900014A696E8000CB244B344DA4501D100F04D
:1001A00049F8BAE80F000FA696E83000A5EB040561
:1001B00004EB0607AAEB0704A7F101074FEA1515A0
:1001C0004FEA3414A4F10104AC4201D300F032F838
:1001D00013F0010F18BFFB1A43F0010300F001F800
:1001E000DBE718470850000028500000103A24BFF1
:1001F00078C878C1FAD8520724BF30C830C144BF8C
:1002000004680C6070470000704700000023002461
:1002100000250026103A28BF78C1FBD8520728BF16
:1002200030C148BF0B6070471FB504F0C1FF1FBD50
:1002300010B510BD00F0D0F81146FFF7F5FF04F03F
:100240005FF900F0EEF803B4FFF7F2FF03BC00F033
:10025000F5F800000948804709480047FEE7FEE737
:10026000FEE7FEE7FEE7FEE7FEE7FEE7FEE7FEE766
:1002700004480549054A064B704700001D3900082F
:100280008901000800040020000A00200006002068
:100290000006002053EA020C00F069802DE9F04BC3
:1002A0004FF00006002B1FBFB3FA83F503FA05F4E5
:1002B00024FA05F65E4012BF1643B2FA82F502FA3E
:1002C00005F4C5F120051EBF22FA05FC44EA0C0422
:1002D000203556EA044C4FEA144418BF641C4FF012
:1002E00000084FF00009904271EB030C39D300294C
:1002F00019BFB1FA81F701FA07F6B0FA80F700FAF0
:1003000007F6C7F120071EBF20FA07FC46EA0C06D5
:100310002037B6FBF4FCA7EB0507103F07F01F0BD7
:10032000CBF120062CFA06F60CFA0BFB44BFB346C1
:100330000026202FA4BF5E464FF0000B5BEA060CA0
:1003400008BF4FF0010B19EB0B0948EB0608ABFB9C
:10035000027C06FB02CC0BFB03CCC01B71EB0C0137
:10036000C1E70B46024641464846BDE8F08B13B54F
:10037000084318BF4FF0FF300146AFF30080BDE8DF
:100380001C4070474FF0000200B513469446964655
:10039000203922BFA0E80C50A0E80C50B1F1200198
:1003A000BFF4F7AF090728BFA0E80C5048BF0CC046
:1003B0005DF804EB890028BF40F8042B08BF7047A4
:1003C00048BF20F8022B11F0804F18BF00F8012B16
:1003D0007047704770477047754600F02BF8AE467F
:1003E00005006946534620F00700854618B020B541
:1003F000FFF73EFFBDE820404FF000064FF000073A
:100400004FF000084FF0000BAC46ACE8C009ACE878
:10041000C009ACE8C009ACE8C00921F007018D466D
:10042000704710B50446AFF300802046BDE8104089
:10043000FFF709BF0048704710000020014918204D
:10044000ABBEFEE72600020070470000FFE7FEE7B4
:1004500080B540F2CC10C2F2000000F083F980BDFC
:1004600080B540F22C20C2F2000000F07BF980BD84
:1004700080B540F20C10C2F2000000F073F980BDAC
:1004800080B540F26C10C2F2000000F06BF980BD44
:1004900082B001900198007810384AF6AB21CAF674
:1004A000AA21A0FB011000090090009945F2E2107A
:1004B000C0F60000405C0199C8650098042807D385
:1004C000FFE701990868042262F30900886506E0E5
:1004D0000199086840F2FF3290438865FFE7019870
:1004E000806D02B07047000086B0059000208DF846
:1004F00013000598806A03900598806910BBFFE798
:100500000398029003281BD80299DFE801F0020D3E
:100510000218059890F82F00C00720B1FFE70120CE
:100520008DF81300FFE70CE00598C06AB0F1C07FBA
:1005300004D1FFE701208DF81300FFE701E000E0A0
:10054000FFE745E005988069B0F5005F25D1FFE73A
:100550000398019003281ED80199DFE801F00206F4
:10056000021101208DF8130016E0059890F82F0075
:10057000C00720B1FFE701208DF81300FFE70BE073
:100580000598C06AB0F1C07F04D1FFE701208DF863
:100590001300FFE700E0FFE719E00398009003284D
:1005A00004D3FFE70098032804D00EE001208DF863
:1005B00013000BE0059890F82F00C00720B1FFE76B
:1005C00001208DF81300FFE700E0FFE7FFE7FFE7FA
:1005D0009DF8130006B0704784B003900291019219
:1005E000009303980168086820F480200860009850
:1005F00003990968486003988068402809D1FFE79B
:100600000198039909688860029803990968C8608D
:1006100008E00298039909688860019803990968BD
:10062000C860FFE704B070477047000072B6FFE78C
:10063000FEE7000080B584B002900298806D0190C2
:1006400000F050FD0090029890F8350002280DD07F
:10065000FFE7029980204865FFE70299002081F8B2
:100660003400FFE701208DF80F0055E00298016883
:10067000086820F01600086002980168486920F0B8
:10068000800048610298006C20B9FFE70298806CF6
:1006900038B1FFE702980168086820F00800086098
:1006A000FFE702980168086820F001000860FFE792
:1006B000029800680068C007C8B1FFE700F012FDAB
:1006C0000099401A062811D3FFE7029920204865B7
:1006D0000299032081F83500FFE70299002081F894
:1006E0003400FFE703208DF80F0015E0E0E70298E3
:1006F000C16D3F208840019988600299012081F8EE
:100700003500FFE70299002081F83400FFE7FFE79A
:1007100000208DF80F00FFE79DF80F0004B080BDAA
:1007200082B00090009890F83500022807D0FFE7CB
:1007300000998020486501208DF807000EE000999F
:10074000052081F8350000980168086820F0010054
:100750000860FFE700208DF80700FFE79DF807001D
:1007600002B0704780B586B005900020039040F23B
:100770000000C2F20000006848F2B511C1F64E3127
:10078000A0FB0110800A02900598806D01900198ED
:100790000068049004980599C96DC84000070028B6
:1007A0001AD5FFE70598006800684007002812D5B1
:1007B000FFE705980168086820F0040008600598C4
:1007C000C16D08208840019988600599486D40F006
:1007D00001004865FFE7FFE704980599C96DC84027
:1007E000C007A0B1FFE7059800684069000600282F
:1007F0000CD5FFE70598C16D0120884001998860FC
:100800000599486D40F002004865FFE7FFE704984E
:100810000599C96DC8404007002814D5FFE7059821
:1008200000680068800700280CD5FFE70598C16DB7
:1008300004208840019988600599486D40F00400C3
:100840004865FFE7FFE704980599C96DC840C006F1
:10085000002847D5FFE705980068006800070028D2
:100860003FD5FFE70598C16D102088400199886049
:10087000059800680068400300281AD5FFE705982E
:10088000006800680003002809D4FFE70598006CA1
:1008900020B1FFE70598016C8847FFE708E005985D
:1008A000806C20B1FFE70598816C8847FFE7FFE780
:1008B00016E0059800680068C005002807D4FFE727
:1008C00005980168086820F008000860FFE70598AF
:1008D000006C20B1FFE70598016C8847FFE7FFE750
:1008E000FFE7FFE704980599C96DC8408006002816
:1008F00040F18D80FFE7059800680068C006002879
:1009000040F18480FFE70598C16D2020884001995F
:100910008860059890F83500052834D1FFE70598E0
:100920000168086820F016000860059801684869A9
:1009300020F0800048610598006C20B9FFE7059819
:10094000806C38B1FFE705980168086820F008005E
:100950000860FFE70598C16D3F20884001998860D5
:100960000599012081F83500FFE70599002081F8FD
:100970003400FFE70598006D20B1FFE70598016D91
:100980008847FFE77BE0059800680068400300287F
:100990001AD5FFE70598006800680003002809D40D
:1009A000FFE70598406C20B1FFE70598416C884748
:1009B000FFE708E00598C06B20B1FFE70598C16B21
:1009C0008847FFE7FFE720E0059800680068C0055A
:1009D000002811D4FFE705980168086820F010008E
:1009E00008600599012081F83500FFE7059900208E
:1009F00081F83400FFE7FFE70598C06B20B1FFE7FF
:100A00000598C16B8847FFE7FFE7FFE7FFE7059819
:100A1000406DA0B3FFE70598406DC00730B3FFE716
:100A20000599052081F8350005980168086820F0CF
:100A300001000860FFE703980130039002998842A3
:100A400001D9FFE707E0FFE7059800680068C007E5
:100A50000028F0D1FFE70599012081F83500FFE774
:100A60000599002081F83400FFE7FFE70598C06C86
:100A700020B1FFE70598C16C8847FFE7FFE706B0A4
:100A800080BD000080B586B004900020039000F087
:100A900029FB0290049820B9FFE701208DF8170088
:100AA000A3E00498406A08B1FFE7FFE70499022039
:100AB00081F83500FFE70499002081F83400FFE752
:100AC00004980168086820F001000860FFE70498B6
:100AD00000680068C00790B1FFE700F003FB0299CF
:100AE000401A06280AD3FFE7049920204865049994
:100AF000032081F835008DF8170076E0E7E70498C9
:100B0000006800680390039848F23F01CFF210019B
:100B100008400390049900914868D1F808C0CB6858
:100B20000A6940EA0C00184310434A6910438A6975
:100B30001043CA691043096A0143039808430390AC
:100B40000498406A042808D1FFE70499C86A096B31
:100B50000143039808430390FFE703980499096849
:100B600008600498006840690390039820F007002B
:100B700003900498416A0398084303900498406ADC
:100B800004281AD1FFE70498816A03980843039068
:100B90000498C06A80B1FFE70498FFF7A5FC50B144
:100BA000FFE70499402048650499012081F8350049
:100BB0008DF8170019E0FFE7FFE70398049909682B
:100BC00048610498FFF764FC01900498C16D3F20D0
:100BD000884001998860049900204865049A0121A1
:100BE00082F835108DF81700FFE79DF8170006B062
:100BF00080BD000080B588B00690059104920393F3
:100C000000208DF80B000698806D0190FFE7069894
:100C100090F83400012804D1FFE702208DF81F006E
:100C200045E00699012081F83400FFE7FFE70698C8
:100C300090F8350001282BD1FFE70699022081F8B2
:100C4000350006990020486506980599049A039B8B
:100C5000FFF7C2FC0698C16D3F208840019988606B
:100C600006980168086840F0160008600698006C55
:100C700038B1FFE706980168086840F0080008608E
:100C8000FFE706980168086840F00100086009E085
:100C9000FFE70699002081F83400FFE702208DF875
:100CA0000B00FFE79DF80B008DF81F00FFE79DF894
:100CB0001F0008B080BD000080B584B0039000F034
:100CC00011FA0290039801900198013048B1FFE7B2
:100CD00040F20400C2F2000001780198084401903B
:100CE000FFE7FFE700F0FEF90299401A01998842F8
:100CF00001D2FFE7F6E704B080BD00008EB00D9092
:100D00000C9100200A90099008900B90FFE70B9837
:100D10000F2800F2CC81FFE70B99012088400A9050
:100D20000C9800680A990840099009980A99884225
:100D300040F0B881FFE70C98406800F003000128FC
:100D400007D0FFE70C98406800F0030002282FD17D
:100D5000FFE70D98806808900B984100032000FA87
:100D600001F10898884308900C98C0680B994900D5
:100D700000FA01F108980843089008980D998860D6
:100D80000D98406808900B99012000FA01F108982D
:100D9000884308900C984068C0F300100B9900FA43
:100DA00001F108980843089008980D994860FFE7FA
:100DB0000C98406800F00300032818D0FFE70D9856
:100DC000C06808900B984100032000FA01F10898D0
:100DD000884308900C9880680B99490000FA01F14B
:100DE00008980843089008980D99C860FFE70C9888
:100DF000406800F00300022826D1FFE70D980B9908
:100E00006FF0030202EA51010844006A08900B984F
:100E100000F0070081000F2000FA01F108988843D4
:100E200008900C9800690B9901F00701890000FAFD
:100E300001F108980843089008980D990B9B02EA65
:100E4000530211440862FFE70D98006808900B9860
:100E50004100032000FA01F10898884308900C989B
:100E6000406800F003000B99490000FA01F108986E
:100E70000843089008980D9908600C9880798007BD
:100E8000002800F00E81FFE7FFE70020079043F6FF
:100E90004400C4F20200016841F48041016000682E
:100EA00000F4804007900798FFE70B9820F00300BC
:100EB00043F60801C4F20101405808900B9800F075
:100EC000030081000F2000FA01F108988843089080
:100ED0000D980021C4F20201884203D1FFE70020EF
:100EE00006905EE00D9840F20041C4F20201884293
:100EF00003D1FFE70120059050E00D9840F6000176
:100F0000C4F20201884203D1FFE70220049042E0CC
:100F10000D9840F60041C4F20201884203D1FFE778
:100F20000320039034E00D9841F20001C4F2020165
:100F3000884203D1FFE70420029026E00D9841F299
:100F40000041C4F20201884203D1FFE7052001906D
:100F500018E00D9841F60001C4F20201884203D165
:100F6000FFE7062000900AE00D9941F60042C4F226
:100F700002020820914208BF07200090FFE7009876
:100F80000190FFE701980290FFE702980390FFE7C6
:100F900003980490FFE704980590FFE705980690F2
:100FA000FFE70698C0B20B9901F00301890000FA2F
:100FB00001F108980843089008980B9921F0030163
:100FC00043F60802C4F20102885043F60840C4F216
:100FD00001000068089009990898884308900C98C7
:100FE0008079C006002805D5FFE7099908980843CD
:100FF0000890FFE7089843F60841C4F20101086031
:1010000043F60C40C4F20100006808900999089862
:10101000884308900C9880798006002805D5FFE762
:101020000999089808430890FFE7089843F60C418F
:10103000C4F20101086043F60440C4F201000068F4
:10104000089009990898884308900C98807980073F
:10105000002805D5FFE70999089808430890FFE79D
:10106000089843F60441C4F20101086043F60040C9
:10107000C4F2010000680890099908988843089014
:101080000C988079C00728B1FFE7099908980843B0
:101090000890FFE7089843F60041C4F20101086098
:1010A000FFE7FFE7FFE70B9801300B902FE60EB04C
:1010B0007047000082B00190ADF802108DF8012059
:1010C0009DF8010028B1FFE7BDF802000199886191
:1010D00005E0BDF80200000401998861FFE702B055
:1010E0007047000040F2FC30C2F200000068704718
:1010F00040F20400C2F20000027840F2FC31C2F279
:1011000000010868104408607047000080B543F68D
:101110000041C4F20201086840F4007008600868E9
:1011200040F480600860086840F480700860032024
:1011300000F08AF80F2000F005F800F03BF80020DE
:1011400080BD000080B582B0009040F20000C2F285
:101150000000006840F20401C2F200010A784FF476
:101160007A71B1FBF2F1B0FBF1F001F0BBFA20B102
:10117000FFE701208DF8070018E000980F280DD830
:10118000FFE700994FF0FF30002200F043F800988D
:1011900040F20801C2F20001086003E001208DF86E
:1011A000070003E000208DF80700FFE79DF8070027
:1011B00002B080BD82B0FFE70020019043F64400FA
:1011C000C4F20200016841F480410160006800F44B
:1011D000804001900198FFE7FFE70020009043F670
:1011E0004000C4F20200016841F0805101600068D3
:1011F00000F0805000900098FFE702B070470000B8
:1012000080B582B08DF807009DF9070002F0BCFFA1
:1012100002B080BD80B586B08DF8170004910392AE
:101220000020029002F0C8FF02909DF91700019083
:1012300002980499039A02F033F90146019802F0EA
:10124000C3FF06B080BD000080B582B00190019858
:1012500002F0DCFF02B080BD80B584B00290019145
:10126000029820B9FFE701208DF80F0021E10198D5
:1012700043F60041C4F20201096801F00701884207
:1012800012D9FFE7019943F60040C4F20200017051
:10129000006800F007000199884204D0FFE70120B0
:1012A0008DF80F0005E1FFE702980078800700281D
:1012B0002AD5FFE7029800784007002809D5FFE704
:1012C00043F60801C4F20201086840F4E0500860E7
:1012D000FFE7029800780007002809D5FFE743F6EA
:1012E0000801C4F20201086840F460400860FFE7AA
:1012F00043F60801C4F20201086820F0F000029AE7
:10130000926810430860FFE702980078C007002841
:101310006ED0FFE702984068012811D1FFE743F63D
:101320000000C4F20200006800F400310020B0EBBD
:10133000514F04D1FFE701208DF80F00B9E02CE0F8
:1013400002984068022805D0FFE702984068032809
:1013500011D1FFE743F60000C4F20200006800F07C
:1013600000710020B0EB516F04D1FFE701208DF830
:101370000F009EE010E043F60000C4F20200006897
:1013800000F002010020B0EB510F04D1FFE7012073
:101390008DF80F008DE0FFE7FFE743F60801C4F288
:1013A0000201086820F00300029A526810430860A6
:1013B000FFF798FE0090FFE743F60800C4F2020032
:1013C000006800F00C0002994968B0EB810F0ED064
:1013D000FFE7FFF787FE0099401A41F28931884202
:1013E00004D3FFE703208DF80F0062E0E4E7FFE796
:1013F000019843F60041C4F20201096801F00701B7
:10140000884212D2FFE7019943F60040C4F202007D
:101410000170006800F007000199884204D0FFE7DE
:1014200001208DF80F0044E0FFE7029800784007A4
:1014300000280CD5FFE743F60801C4F20201086852
:1014400020F4E050029AD26810430860FFE7029847
:101450000078000700280DD5FFE743F60801C4F225
:101460000201086820F46040029A126940EAC20052
:101470000860FFE700F04CF843F60801C4F20201EF
:101480000968C9B20A0945F2CA11C0F60001895CAF
:10149000C84040F20001C2F20001086040F20800BA
:1014A000C2F200000068FFF74DFE00208DF80F002B
:1014B000FFE79DF80F0004B080BD000040F200007F
:1014C000C2F200000068704780B5FFF7F7FF43F6EF
:1014D0000801C4F202010968C1F3822245F2DA115F
:1014E000C0F60001895CC84080BD000080B5FFF7F0
:1014F000E5FF43F60801C4F20201096889B24A0B0C
:1015000045F2DA11C0F60001895CC84080BD0000D8
:1015100080B586B00020059004900390029043F6B9
:101520000800C4F20200006800F00C0001460191BE
:1015300040B1FFE7019804280AD0FFE70198082886
:101540000CD04FE042F20040C0F2F40002904FE0B5
:1015500041F60030C0F2B700029049E043F60400C3
:10156000C4F20200016801F03F01059100684002E9
:10157000002813D5FFE743F60400C4F20200006818
:10158000C0F3881041F60031C0F2B701A0FB0101A1
:10159000059A0023FEF77EFE049012E043F6040055
:1015A000C4F202000068C0F3881042F20041C0F2A9
:1015B000F401A0FB0101059A0023FEF76BFE0490E5
:1015C000FFE743F60400C4F20200006800F4403173
:1015D000022000EBD130039004980399B0FBF1F0A6
:1015E000029005E042F20040C0F2F4000290FFE7F2
:1015F000029806B080BD000080B586B004900498C3
:1016000020B9FFE701208DF8170050E30498007817
:10161000C007002800F0A580FFE743F60800C4F2E9
:101620000200006800F00C00042813D0FFE743F626
:101630000800C4F20200006800F00C0008281ED167
:10164000FFE743F60400C4F20200006840020028ED
:1016500015D5FFE743F60000C4F20200006800F46D
:1016600000310020B0EB514F08D0FFE704984068EC
:1016700020B9FFE701208DF8170018E370E0FFE7BD
:1016800004984068B0F5803F09D1FFE743F60001B8
:10169000C4F20201086840F48030086020E0049839
:1016A0004068B0F5A02F0DD1FFE743F60001C4F26A
:1016B0000201086840F480200860086840F4803027
:1016C00008600CE043F60001C4F20201086820F44F
:1016D00080300860086820F480200860FFE7FFE79A
:1016E000FFE704984068E8B1FFE7FFF7FBFC0390D1
:1016F000FFE743F60000C4F20200006800F4003186
:101700000020B0EB514F0CD1FFE7FFF7EBFC039942
:10171000401A652804D3FFE703208DF81700C6E2BE
:10172000E7E71CE0FFF7DEFC0390FFE743F600006D
:10173000C4F20200006800F400310020B0EB514F09
:101740000CD0FFE7FFF7CEFC0399401A652804D3BD
:10175000FFE703208DF81700A9E2E7E7FFE7FFE7BF
:10176000FFE7049800788007002840F19680FFE7A3
:1017700043F60800C4F20200006810F00C0F13D00A
:10178000FFE743F60800C4F20200006800F00C0016
:1017900008282CD1FFE743F60400C4F202000068D9
:1017A0004002002823D4FFE743F60000C4F2020001
:1017B000006800F002010020B0EB510F09D0FFE7F4
:1017C0000498C068012804D0FFE701208DF81700B5
:1017D0006DE243F60001C4F20201086820F0F8004F
:1017E000049A126940EAC2000860FFE754E00498D6
:1017F000C06870B3FFE70021C4F2472101200860F0
:10180000FFF770FC0390FFE743F60000C4F202000C
:10181000006800F002010020B0EB510F0CD1FFE78F
:10182000FFF760FC0399401A032804D3FFE7032065
:101830008DF817003BE2E7E743F60001C4F202012E
:10184000086820F0F800049A126940EAC2000860B3
:1018500021E00021C4F2472100200860FFF742FC8C
:101860000390FFE743F60000C4F20200006800F0B6
:1018700002010020B0EB510F0CD0FFE7FFF732FC64
:101880000399401A032804D3FFE703208DF81700BB
:101890000DE2E7E7FFE7FFE7FFE7049800780007BE
:1018A00000284BD5FFE70498406918B3FFE740F6DE
:1018B0008061C4F2472101200860FFF713FC039008
:1018C000FFE743F67400C4F20200006800F0020172
:1018D0000020B0EB510F0CD1FFE7FFF703FC039999
:1018E000401A032804D3FFE703208DF81700DEE138
:1018F000E7E722E040F68061C4F24721002008605B
:10190000FFF7F0FB0390FFE743F67400C4F2020018
:10191000006800F002010020B0EB510F0CD0FFE78F
:10192000FFF7E0FB0399401A032804D3FFE70320E5
:101930008DF81700BBE1E7E7FFE7FFE704980078C1
:101940004007002840F1CE80FFE700208DF8070017
:1019500043F64000C4F202000068C000002815D41D
:10196000FFE7FFE70020009043F64000C4F20200CA
:10197000016841F080510160006800F080500090E3
:101980000098FFE701208DF80700FFE747F200000D
:10199000C4F200000068C005002822D4FFE747F227
:1019A0000001C4F20001086840F480700860FFF78D
:1019B00099FB0390FFE747F20000C4F200000068C3
:1019C000C00500280CD4FFE7FFF78CFB0399401AF1
:1019D000032804D3FFE703208DF8170067E1EAE747
:1019E000FFE7FFE704988068012809D1FFE743F685
:1019F0007001C4F20201086840F0010008601FE0B5
:101A00000498806805280DD1FFE743F67001C4F201
:101A10000201086840F004000860086840F0010016
:101A200008600CE043F67001C4F20201086820F07F
:101A300001000860086820F004000860FFE7FFE785
:101A4000FFE704988068F8B1FFE7FFF74BFB0390CE
:101A5000FFE743F67000C4F20200006800F00201E4
:101A60000020B0EB510F0ED1FFE7FFF73BFB0399CE
:101A7000401A41F28931884204D3FFE703208DF8F0
:101A8000170014E1E5E71EE0FFF72CFB0390FFE7EA
:101A900043F67000C4F20200006800F0020100206A
:101AA000B0EB510F0ED0FFE7FFF71CFB0399401A74
:101AB00041F28931884204D3FFE703208DF81700F3
:101AC000F5E0E5E7FFE79DF80700012809D1FFE70A
:101AD00043F64001C4F20201086820F0805008601B
:101AE000FFE7FFE704988069002800F0DC80FFE74B
:101AF00043F60800C4F20200006800F00C00082859
:101B000000F08580FFE70498806902285CD1FFE738
:101B10006021C4F2472100200860FFF7E3FA039038
:101B2000FFE743F60000C4F20200006800F0007115
:101B30000020B0EB516F0CD0FFE7FFF7D3FA039909
:101B4000401A032804D3FFE703208DF81700AEE006
:101B5000E7E70499C869D1F820C04B6A8A6A40EA6D
:101B60000C0040EA8310D2034FF6FF739A43A2F5AC
:101B700080321043C96A40EA016043F60401C4F2AE
:101B8000020108606021C4F2472101200860FFF7CC
:101B9000A9FA0390FFE743F60000C4F202000068D0
:101BA00000F000710020B0EB516F0CD1FFE7FFF7A0
:101BB00099FA0399401A032804D3FFE703208DF80C
:101BC000170074E0E7E721E06021C4F2472100201C
:101BD0000860FFF787FA0390FFE743F60000C4F2BE
:101BE0000200006800F000710020B0EB516F0CD0D3
:101BF000FFE7FFF777FA0399401A032804D3FFE7BA
:101C000003208DF8170052E0E7E7FFE74AE0049869
:101C10008069012804D1FFE701208DF8170046E014
:101C200043F60400C4F20200006802900498806940
:101C3000012831D0FFE7029800F480000499C969B7
:101C4000884229D1FFE7029800F03F000499096A11
:101C5000884221D1FFE7029847F6C07108400499F5
:101C6000496AB0EB811F17D1FFE7029800F44030BA
:101C70000499896AC9034FF6FF729143A1F5803137
:101C8000884209D1FFE7029800F070600499C96AA0
:101C9000B0EB016F04D0FFE701208DF8170006E0DC
:101CA000FFE7FFE7FFE700208DF81700FFE79DF84B
:101CB000170006B080BD000080B584B00290029885
:101CC00020B9FFE701208DF80F0072E00298406A0A
:101CD00060B9FFE702984068B0F5827F01D1FFE765
:101CE00003E002990020C861FFE705E002990020A7
:101CF000086102994861FFE7029900208862029812
:101D000090F8510040B9FFE70299002081F8500097
:101D1000029800F053F8FFE70299022081F8510081
:101D200002980168086820F040000860029A019259
:101D300011685068D2F808C0D36800F482700CF4BF
:101D4000044C604403F400631844136903F0020375
:101D50001844536903F001031844936903F40073B2
:101D60001844D36903F038031844136A03F080035E
:101D70001843926A02F40052104308600298016806
:101D80008369426A042000EA134002F01002104402
:101D9000486002980168C86920F40060C86102992F
:101DA00000204865029A012182F851108DF80F0039
:101DB000FFE79DF80F0004B080BD000080B588B03B
:101DC00007900020069005900490039002900798D9
:101DD000006843F20001C4F20101884233D1FFE7F9
:101DE000FFE70020019043F64400C4F202000168BE
:101DF00041F480510160006800F480500190019826
:101E0000FFE7FFE70020009043F63000C4F2020035
:101E1000016841F001010160006800F001000090DC
:101E20000098FFE7E0200290022003900020049039
:101E300003200590052006900020C4F2020002A9AC
:101E4000FEF75CFFFFE708B080BD000080B588B0FA
:101E500006900591ADF812200393069890F8510072
:101E6000012804D0FFE702208DF81F0011E105983A
:101E700020B1FFE7BDF8120020B9FFE701208DF87F
:101E80001F0006E106984068B0F5827F16D1FFE793
:101E90000698806890B9FFE70699042081F8510000
:101EA0000698059ABDF812300399EC46CCF800105C
:101EB000114600F045FA8DF81F00EAE0FFF712F92D
:101EC0000290FFE7069890F85000012804D1FFE740
:101ED00002208DF81F00DCE00699012081F85000F7
:101EE000FFE7FFE70699042081F8510006990020DA
:101EF00048650599069A9163BDF81210069A918774
:101F0000BDF81210069AD18706990863069988864B
:101F10000699C886069908640699486406988068F8
:101F2000B0F5004F0DD1FFE706980168086820F072
:101F30004000086006980168086820F48040086046
:101F4000FFE706980068006800F04000402807D0CE
:101F5000FFE706980168086840F040000860FFE766
:101F60000698C068D0BBFFE7FFE70698C08FA0B314
:101F7000FFE7069800688068C00778B1FFE7069819
:101F80000068007B0699896B08700699886B0130A0
:101F900088630699C88F0138C8871DE0FFF7A2F84B
:101FA0000299401A0399884204D3FFE7039801304D
:101FB00018B9FFE7039870B9FFE70699012081F887
:101FC0005100FFE70699002081F85000FFE7032049
:101FD0008DF81F005DE0FFE7C7E739E0FFE70698EF
:101FE000C08FA0B3FFE7069800688068C00778B18B
:101FF000FFE706980068C0680699896B0880069913
:10200000886B023088630699C88F0138C8871DE045
:10201000FFF768F80299401A0399884204D3FFE752
:102020000398013018B9FFE7039870B9FFE70699E4
:10203000012081F85100FFE70699002081F8500047
:10204000FFE703208DF81F0023E0FFE7C7E7FFE766
:1020500006980399029A01F065FA20B1FFE7069904
:1020600020204865FFE70699012081F85100FFE72D
:102070000699002081F85000FFE70698406D20B1D6
:10208000FFE701208DF81F0003E000208DF81F00FE
:10209000FFE79DF81F0008B080BD000080B588B044
:1020A00006900591ADF812200393FFF71BF80290FC
:1020B000BDF81200ADF80600069890F8510001280E
:1020C00004D0FFE702208DF81F0034E1059820B10D
:1020D000FFE7BDF8120020B9FFE701208DF81F00CF
:1020E00029E1FFE7069890F85000012804D1FFE7A6
:1020F00002208DF81F001EE10699012081F8500092
:10210000FFE7FFE70699032081F8510006990020B8
:1021100048650599069A1163BDF81210069A9186D2
:10212000BDF81210069AD1860699886306998887A9
:102130000699C887069948640699086406988068D5
:10214000B0F5004F0DD1FFE706980168086820F050
:102150004000086006980168086840F48040086004
:10216000FFE706980068006800F04000402807D0AC
:10217000FFE706980168086840F040000860FFE744
:102180000698C068B0F5006F51D1FFE70698406827
:1021900028B1FFE7BDF8060001280ED1FFE7069839
:1021A0000168006B0088C8600699086B02300863FC
:1021B0000699C88E0138C886FFE7FFE70698C08EEB
:1021C000A0B3FFE7069800688068800700280ED556
:1021D000FFE706980168006B0088C8600699086BE5
:1021E000023008630699C88E0138C8861DE0FEF7E4
:1021F00079FF0299401A0399884204D3FFE70398B4
:10220000013018B9FFE7039870B9FFE7069901207C
:1022100081F85100FFE70699002081F85000FFE7A0
:1022200003208DF81F0086E0FFE7C7E750E006981F
:10223000406828B1FFE7BDF8060001280ED1FFE78E
:1022400006980168006B007808730699086B0130E6
:1022500008630699C88E0138C886FFE7FFE706982D
:10226000C08EA0B3FFE7069800688068800700284A
:102270000ED5FFE706980168006B00780873069991
:10228000086B013008630699C88E0138C8861DE0C6
:10229000FEF728FF0299401A0399884204D3FFE70A
:1022A0000398013018B9FFE7039870B9FFE7069962
:1022B000012081F85100FFE70699002081F85000C5
:1022C000FFE703208DF81F0035E0FFE7C7E7FFE7D2
:1022D00006980399029A01F097F920B1FFE7069951
:1022E00020204865FFE70698806870B9FFE7FFE7A0
:1022F0000020009006980068C0680090069800686A
:10230000806800900098FFE7FFE70699012081F8B8
:102310005100FFE70699002081F85000FFE706987A
:10232000406D20B1FFE701208DF81F0003E0002081
:102330008DF81F00FFE79DF81F0008B080BD00006A
:1023400080B58CB0DDF838C00A9009910892ADF8DC
:102350001E3001200390FEF7C5FE04900A9890F805
:1023600051008DF817000A9840680690BDF81E00CD
:10237000ADF81C009DF81700012812D0FFE7069861
:10238000B0F5827F09D1FFE70A98806828B9FFE796
:102390009DF81700042804D0FFE702208DF82F00D5
:1023A0009BE1099838B1FFE7089820B1FFE7BDF835
:1023B0001E0020B9FFE701208DF82F008DE1FFE717
:1023C0000A9890F85000012804D1FFE702208DF808
:1023D0002F0082E10A99012081F85000FFE7FFE712
:1023E0000A9890F85100042805D0FFE70A990520C3
:1023F00081F85100FFE70A990020486508990A9A78
:102400009163BDF81E100A9AD187BDF81E100A9A72
:10241000918709990A9A1163BDF81E100A9AD1860C
:10242000BDF81E100A9A91860A9908640A994864B0
:102430000A980068006800F04000402807D0FFE7D5
:102440000A980168086840F040000860FFE70A98B1
:10245000C068B0F5006F40F08180FFE70A984068DF
:1024600028B1FFE7BDF81C0001280ED1FFE70A984C
:102470000168006B0088C8600A99086B0230086325
:102480000A99C88E0138C886FFE7FFE70A98C18E0F
:102490000120019039B9FFE70A98C08F002818BFC2
:1024A00001200190FFE70198C007002855D0FFE701
:1024B0000A98006880688007002818D5FFE70A9806
:1024C000C08EA0B1FFE70398012810D1FFE70A985A
:1024D0000168006B0088C8600A99086B02300863C5
:1024E0000A99C88E0138C88600200390FFE70A9831
:1024F00000688068C007A8B1FFE70A98C08F88B15C
:10250000FFE70A980068C0680A99896B08800A99F1
:10251000886B023088630A99C88F0138C887012008
:102520000390FFE7FEF7DEFD0499401A0E998842FA
:1025300012D3FFE70E98013070B1FFE70A9901202E
:1025400081F85100FFE70A99002081F85000FFE769
:1025500003208DF82F00C0E098E782E00A984068D9
:1025600028B1FFE7BDF81C0001280ED1FFE70A984B
:102570000168006B007808730A99086B01300863E2
:102580000A99C88E0138C886FFE7FFE70A98C18E0E
:102590000120009039B9FFE70A98C08F002818BFC2
:1025A00001200090FFE70098C007002858D0FFE7FF
:1025B0000A98006880688007002818D5FFE70A9805
:1025C000C08EA0B1FFE70398012810D1FFE70A9859
:1025D0000168006B007808730A99086B0130086382
:1025E0000A99C88E0138C88600200390FFE70A9830
:1025F00000688068C007A8B1FFE70A98C08F88B15B
:10260000FFE70A980068C0680A99896B08700A9900
:10261000886B013088630A99C88F0138C887012008
:102620000390FFE7FEF75EFD0499401A0E99884279
:1026300004D3FFE70E98013018B9FFE70E9870B980
:10264000FFE70A99012081F85100FFE70A9900206D
:1026500081F85000FFE703208DF82F003DE095E75B
:10266000FFE70A980E99049A00F0CEFF68B1FFE7E1
:102670000A9920204865FFE70A99002081F8500058
:10268000FFE701208DF82F0027E00A98806870B9D5
:10269000FFE7FFE7002002900A980068C0680290F8
:1026A0000A980068806802900298FFE7FFE70A999D
:1026B000012081F85100FFE70A99002081F85000BD
:1026C000FFE70A98406D20B1FFE701208DF82F0049
:1026D00003E000208DF82F00FFE79DF82F000CB0DD
:1026E00080BD000080B582B00190019801F08AF8A9
:1026F00002B080BD80B586B004900391ADF80A2089
:10270000049890F84200202848D1FFE7039820B1B0
:10271000FFE7BDF80A0020B9FFE701208DF8170098
:1027200040E004990120086304990020486304985C
:102730000399BDF80A2001F0F3FB8DF80900049815
:10274000006B012821D1FFE7FFE7002001900498EA
:102750000068006801900498006840680190019842
:10276000FFE7FFE7FFE70498006850E8030F40F039
:1027700010000090FFE700990498026842E80310F7
:102780000028F0D1FFE7FFE703E001208DF8090002
:10279000FFE79DF809008DF8170003E002208DF88F
:1027A0001700FFE79DF8170006B080BD80B584B024
:1027B0000390ADF80A1000208DF80900FFE79DF89E
:1027C000090040F27431C2F200010978884250DAFF
:1027D000FFE703989DF8092040F2E831C2F20001BA
:1027E00051F82210896E88423CD1FFE79DF809100C
:1027F00040F2E830C2F2000050F82100C06EB0B1E3
:10280000FFE79DF8091040F2E830C2F200000190A5
:1028100050F82100C16E006F884701989DF809109B
:1028200050F82100BDF80A10FDF7ACFDFFE79DF858
:10283000091040F2E830C2F20000009050F8211078
:10284000886E91F86420FFF755FF00989DF80910F5
:1028500050F82100806EC06B0168086820F0080005
:10286000086006E0FFE79DF8090001308DF80900D7
:10287000A5E704B080BD000080B584B003900020BF
:102880008DF80B00FFE79DF80B0040F27431C2F2A7
:102890000001097888422FDAFFE703989DF80B20A2
:1028A00040F2E831C2F2000151F82210896E8842EC
:1028B0001BD1FFE79DF80B1040F2E830C2F2000098
:1028C000019050F82110886E91F86420FFF712FFF4
:1028D00001989DF80B1050F82100806EC06B0168C4
:1028E000086820F00800086006E0FFE79DF80B008C
:1028F00001308DF80B00C6E704B080BD80B592B002
:102900001190119800680068109011980068C068D4
:102910000F901198006840690E9000200D900C9067
:10292000109800F00F000D900D9888B9FFE79DF802
:102930004000800600280AD5FFE79DF83C0080068D
:10294000002804D5FFE7119801F098F902E2FFE7AB
:102950000D98002800F0C280FFE79DF83800C007FE
:1029600038B9FFE7BDF83C0010F4907F00F0B68066
:10297000FFE79DF84000C00758B1FFE79DF83D0014
:10298000C00730B1FFE71199486C40F0010048647E
:10299000FFE79DF84000400700280BD5FFE79DF8B2
:1029A0003800C00730B1FFE71199486C40F00200D1
:1029B0004864FFE79DF84000800700280BD5FFE73B
:1029C0009DF83800C00730B1FFE71199486C40F01E
:1029D00004004864FFE79DF840000007002811D577
:1029E000FFE79DF83C008006002805D4FFE79DF82E
:1029F0003800C00730B1FFE71199486C40F008007B
:102A00004864FFE71198406C002866D0FFE79DF806
:102A10004000800600280AD5FFE79DF83C008006AC
:102A2000002804D5FFE7119801F028F9FFE7119875
:102A300000684069C0F380100C901198406C00074A
:102A4000002804D4FFE70C9800283ED0FFE7119837
:102A500001F09AF8119800684069400600282FD5C7
:102A6000FFE7FFE7FFE71198006850E8050F20F047
:102A700040000B90FFE70B991198026842E805109F
:102A80000028F0D1FFE7FFE71198C06B98B1FFE78E
:102A90001198C16B43F6C910C0F600000865119883
:102AA000C06BFDF73DFE28B1FFE71198C06B016DCB
:102AB0008847FFE703E01198FFF7DEFEFFE703E03A
:102AC0001198FFF7D9FEFFE706E01198FFF7D4FE53
:102AD000119900204864FFE7FFE73BE11198006B84
:102AE000012840F01781FFE79DF84000C00600284C
:102AF00040F11081FFE79DF83C00C006002840F13E
:102B00000981FFE7FFE700200A901198006800683C
:102B10000A901198006840680A900A98FFE7119897
:102B2000006840694006002840F19A80FFE711984C
:102B3000C06B00684068ADF82600BDF8260000288C
:102B400075D0FFE7BDF826001199898D88426EDAAD
:102B5000FFE7BDF826001199C8851198C06BC069C0
:102B6000B0F5807F58D0FFE7FFE7FFE711980068D6
:102B700050E8030F20F480700890FFE7089911983F
:102B8000026842E803100028F0D1FFE7FFE7FFE703
:102B9000FFE71198006850E8050F20F0010007904A
:102BA000FFE707991198026842E805100028F0D164
:102BB000FFE7FFE7FFE7FFE71198006850E8050F20
:102BC00020F040000690FFE706991198026842E85D
:102BD00005100028F0D1FFE7FFE71199202081F8C8
:102BE0004200119900200863FFE7FFE71198006891
:102BF00050E8030F20F010000590FFE705991198A9
:102C0000026842E803100028F0D1FFE7FFE71198BF
:102C1000C06BFDF70FFDFFE7119902204863119883
:102C2000818DC28D891A89B2FFF7C0FD17E0BDF80A
:102C300026001199898D884210D1FFE71198C06B49
:102C4000C069B0F5807F08D1FFE711990220486381
:102C50001198818DFFF7AAFDFFE7FFE7FFE779E015
:102C60001199888DC98D401AADF812001198C08D48
:102C700000284ED0FFE7BDF81200002849D0FFE73A
:102C8000FFE7FFE71198006850E8030F20F4907009
:102C90000390FFE703991198026842E803100028A7
:102CA000F0D1FFE7FFE7FFE7FFE71198006850E882
:102CB000050F20F001000290FFE7029911980268C9
:102CC00042E805100028F0D1FFE7FFE71199202026
:102CD00081F84200119900200863FFE7FFE711988F
:102CE000006850E8030F20F010000190FFE7019901
:102CF0001198026842E803100028F0D1FFE7FFE7CF
:102D00001199022048631198BDF81210FFF74EFD8B
:102D1000FFE71FE09DF84000000600280AD5FFE706
:102D20009DF83C000006002804D5FFE7119801F04B
:102D30008FF90FE09DF84000400600280AD5FFE714
:102D40009DF83C004006002804D5FFE7119800F0EC
:102D500065FFFFE712B080BD80B582B0009000989B
:102D600020B9FFE701208DF8070040E00098806956
:102D700008B1FFE700E0FFE7009890F8410040B994
:102D8000FFE70099002081F84000009800F034F837
:102D9000FFE70099242081F8410000980168C86885
:102DA00020F40050C860009801F01CF800980168F9
:102DB000086920F49040086100980168486920F093
:102DC0002A00486100980168C86840F40050C86053
:102DD000009900204864009A202182F84110009A4E
:102DE00082F84210009948638DF80700FFE79DF8CC
:102DF000070002B080BD000080B592B011900020A5
:102E000010900F900E900D900C901198006841F268
:102E10000001C4F20101884240F09280FFE7FFE721
:102E200000200B9043F64400C4F20200016841F018
:102E300010010160006800F010000B900B98FFE794
:102E4000FFE700200A9043F63000C4F20200016858
:102E500041F001010160006800F001000A900A9849
:102E6000FFE74FF4C0600C9002200D900020069008
:102E70000E9003200F90072010900020C4F2020053
:102E80000CA9FDF73BFF069940F20C10C2F20000BE
:102E9000079046F24042C4F2020202604FF0006224
:102EA00042608160C1604FF4806202614161816172
:102EB000C16101624162FDF7E5FD18B1FFE7FDF771
:102EC000B5FBFFE7FFE7119840F20C11C2F20001D9
:102ED000C16311988863FFE740F26C10C2F20000F2
:102EE000059046F2B841C4F2020101604FF0006162
:102EF0004160402181600021C1604FF48062026125
:102F000041618161C16101624162FDF7BBFD18B1A0
:102F1000FFE7FDF78BFBFFE7FFE7119840F26C112D
:102F2000C2F20001816311988863FFE725200490B5
:102F300000221146FEF76EF90498FEF761F99AE057
:102F40001198006844F20041C4F20001884240F048
:102F50009180FFE7FFE70020099043F64000C4F2AC
:102F60000200016841F400310160006800F40030A3
:102F700009900998FFE7FFE70020089043F630002A
:102F8000C4F20200016841F001010160006800F034
:102F9000010008900898FFE70C200C9002200D908B
:102FA000002002900E9003200F9007201090002028
:102FB000C4F202000CA9FDF7A1FE029940F2CC1068
:102FC000C2F20000039046F28802C4F202020260DC
:102FD0004FF0006242608160C1604FF48062026124
:102FE00041618161C16101624162FDF74BFD18B130
:102FF000FFE7FDF71BFBFFE7FFE7119840F2CC115D
:10300000C2F20001C16311988863FFE740F22C20EF
:10301000C2F20000019046F2A001C4F20201016078
:103020004FF000614160402181600021C1604FF498
:103030008062026141618161C16101624162FDF7AB
:1030400021FD18B1FFE7FDF7F1FAFFE7FFE711985F
:1030500040F22C21C2F20001816311988863FFE7DE
:103060002620009000221146FEF7D4F80098FEF7C3
:10307000C7F8FFE7FFE712B080BD000081B0009005
:1030800001B0704781B0009001B0704781B00090EE
:1030900001B0704780B584B0039002910620019082
:1030A00002980199405C03990870029801990844BC
:1030B000043000F02DFA039880ED110A029801996E
:1030C0000844083000F078FC03998864029801995C
:1030D00008440C3000F01CFA039880ED010A0298B5
:1030E00001990844103000F013FA039880ED020AA9
:1030F000029801990844143000F00AFA039880ED10
:10310000030A029801990844183000F001FA039864
:1031100080ED040A0298019908441C3000F0F8F987
:10312000039880ED050A029801990844203000F0C8
:10313000EFF9039880ED060A0298019908442430BB
:1031400000F0E6F9039880ED070A02980199084417
:10315000283000F0DDF9039880ED080A0298019903
:1031600008442C3000F0D4F9039880ED090A029845
:1031700001990844303000F0CBF9039880ED0A0A39
:10318000029801990844343000F0C2F9039880EDA8
:103190000B0A029801990844383000F0B9F90398F5
:1031A00080ED0C0A0298019908443C3000F0B0F917
:1031B000039880ED0D0A029801990844403000F010
:1031C000A7F9039880ED0E0A02980199084444304B
:1031D00000F09EF9039880ED0F0A029801990844C7
:1031E000483000F095F9039880ED100A04B080BDD6
:1031F000FFE7FEE780B584B0039040F27000C2F2B2
:1032000000000290029800785A281AD1FFE702982D
:103210004078A52815D1FFE702998878C97840EA57
:103220000120ADF80600BDF906004C2801D0FFE7EB
:1032300007E0029940F28830C2F20000FFF72AFF4F
:10324000FFE704B080BD000080B588B0FFE7002034
:10325000079043F63000C4F20200016841F4001107
:103260000160006800F4001007900798FFE7FFE78F
:103270000020069043F63000C4F20200016841F4D9
:1032800080010160006800F4800006900698FFE766
:1032900010200190002204921146FDF7BBFF019817
:1032A000FDF7AEFF049A112002901146FDF7B2FF20
:1032B0000298FDF7A5FF049A3A2003901146FDF706
:1032C000A9FF0398FDF79CFF049A4620059011463C
:1032D000FDF7A0FF0598FDF793FF08B080BD000043
:1032E00080B590B000200F900E900D900C900B9038
:1032F000FFE700200A9043F63000C4F202000168A4
:1033000041F080010160006800F080000A900A9896
:10331000FFE7FFE70020099043F63000C4F2020007
:10332000016841F001010160006800F001000990AE
:103330000998FFE7FFE70020089043F63000C4F249
:103340000200016841F002010160006800F0020023
:1033500008900898FFE70020C4F2020001901021B5
:10336000009101220292FDF7A5FE029A40F2004070
:10337000C4F2020005904FF480410791FDF79AFED8
:10338000009A019802990B920C91002103910D91E2
:10339000022104910E910BA90691FDF7AFFCDDF817
:1033A00008C0039B049A05980699DDF81CE0CDF847
:1033B0002CE0CDF830C00D930E92FDF79FFC10B0BD
:1033C00080BD000080B582B040F28C20C2F20000C7
:1033D000019043F20001C4F2010101604FF48271D7
:1033E0004160002181604FF40062C26001610122EE
:1033F00042614FF4007282611022C2610162416237
:1034000081620A21C162FEF757FC18B1FFE7FDF7A0
:103410000DF9FFE702B080BD80B582B040F2E42034
:10342000C2F20000019041F20001C4F2010101600A
:103430004FF4E131416000218160C16001610C22E3
:1034400042618161C161FFF787FC18B1FFE7FDF7B9
:10345000EDF8FFE702B080BD80B582B040F22C30BD
:10346000C2F20000019044F20041C4F20001016088
:103470004FF4E131416000218160C16001610C22A3
:1034800042618161C161FFF767FC18B1FFE7FDF799
:10349000CDF8FFE702B080BDFFE7FEE7FFE7FEE7FC
:1034A00088B0079006910592079800F007000490F5
:1034B0000498C0F10700052803D3FFE7042001901A
:1034C00004E00498C0F107000190FFE70198039021
:1034D00004980430062803D8FFE70020009003E09A
:1034E000049803380090FFE700980290069803992B
:1034F000012202FA01F101390840029B9840059926
:103500009A40013A1140084308B0704770470000E4
:1035100082B001900198006800909DED000A02B011
:103520007047000080B586B0049003910292049821
:103530004068B0F5827F13D1FFE704988068B0F54A
:10354000004F06D0FFE704988068B0F5806F07D180
:10355000FFE704980168086820F040000860FFE772
:1035600004984068B0F5827F31D1FFE70498806805
:10357000B0F5806F15D0FFE70498039B02996A4667
:1035800011608021002200F0A5F848B1FFE70499FE
:10359000486D40F02000486503208DF817002FE0AB
:1035A00014E00498039B02996A46116001210022ED
:1035B00000F090F848B1FFE70499486D40F0200012
:1035C000486503208DF817001AE0FFE714E004981F
:1035D000039B02996A4611600121002200F07AF8EB
:1035E00048B1FFE70499486D40F02000486503208A
:1035F0008DF8170004E0FFE700208DF81700FFE7C3
:103600009DF8170006B080BD80B586B00490039188
:1036100002920498039B02996A46116002210122DA
:1036200000F058F848B1FFE70499486D40F02000D9
:10363000486503208DF8170048E040F20000C2F210
:10364000000000684AF6AB21CAF6AA21A0FB0110CF
:1036500000094FF2A171C1F2C601A0FB0110000CDC
:103660004FF47A714843019004984068B0F5827F26
:1036700015D1FFE70498039B02996A4611608021E7
:10368000002200F027F848B1FFE70499486D40F0A8
:103690002000486503208DF8170017E012E0FFE7CF
:1036A000019808B9FFE70CE0019801380190FFE7A5
:1036B000049800688068C1B20020B0EBD11FEFD140
:1036C000FFE7FFE700208DF81700FFE79DF81700E0
:1036D00006B080BD80B58AB0DDF830C00890079193
:1036E0008DF81B20059305980190FDF7FBFC024621
:1036F00001980C99891A08440390FDF7F3FC029095
:10370000039840F20001C2F200010968C1F3CB3115
:1037100048430490FFE708980068806807990840CC
:10372000401AB0FA80F040099DF81B1088425FD023
:10373000FFE705980130002859D0FFE7FDF7D2FCDC
:103740000299401A0399884204D2FFE7039800289F
:1037500042D1FFE708980168486820F0E00048601F
:1037600008984068B0F5827F13D1FFE70898806819
:10377000B0F5004F06D0FFE708988068B0F5806F7D
:1037800007D1FFE708980168086820F0400008604A
:10379000FFE70898806AB0F5005F0FD1FFE7FFE709
:1037A00008980168086820F40050086008980168CB
:1037B000086840F400500860FFE7FFE7089901201F
:1037C00081F85100FFE70899002081F85000FFE7D9
:1037D00003208DF827000FE0049818B9FFE70020B8
:1037E000039003E0049801380490FFE7FFE792E7B5
:1037F00000208DF82700FFE79DF827000AB080BD64
:103800007047000080B582B0009000980138B0F198
:10381000807F03D3FFE70120019019E00098013871
:103820004EF21401CEF2000108604FF0FF300F217C
:1038300000F0CAFC4EF21801CEF200010020086030
:103840004EF21002CEF20002072111600190FFE754
:10385000019802B080BD000080B5FDF749FC80BD35
:1038600080B594B008A83021FCF78CFD00200790AB
:103870000690059004900390FFE70020029043F625
:103880004000C4F20200016841F08051016000680C
:1038900000F0805002900298FFE7FFE700200190BF
:1038A00047F20000C4F20000016841F48041016069
:1038B000006800F4804001900198FFE70120089023
:1038C0004FF48030099002200E904FF480010F9148
:1038D00006211091A821119112900420139008A89C
:1038E000FDF78AFE18B1FFE7FCF7A0FEFFE70F2007
:1038F000039002200490002005904FF4A050069001
:103900004FF48050079003A80521FDF7A5FC18B1DE
:10391000FFE7FCF78BFEFFE714B080BD4EF6885141
:10392000CEF20001086840F47000086070470000A3
:1039300080B582B08DF807009DF8070050B9FFE709
:1039400040F20040C4F202004FF480410122FDF732
:10395000B1FB0DE09DF80700012808D1FFE700202A
:10396000C4F2020010210122FDF7A4FBFFE7FFE7EC
:1039700002B080BD80B582B08DF807009DF80700C9
:1039800050B9FFE740F20040C4F202004FF480411A
:103990000022FDF78FFB0DE09DF80700012808D1FC
:1039A000FFE70020C4F2020010210022FDF782FB95
:1039B000FFE7FFE702B080BD82B001900198006888
:1039C0000090009802B0704780B582B001900198D5
:1039D000806B009000990020C8850098FEF74CFF8E
:1039E00002B080BD80B584B003900020029003989F
:1039F000806B0190019800684069C0B2C0090290D4
:103A0000019890F8410021280AD1FFE7029838B1C7
:103A1000FFE701990020C884019800F013F9FFE73F
:103A2000019800684069C0F380100290019890F8F6
:103A3000420022280AD1FFE7029838B1FFE7019936
:103A40000020C885019800F09FF8FFE70199486CB5
:103A500040F0100048640198FEF70EFF04B080BDEE
:103A600080B586B005900598806B04900598006835
:103A70000068C00500285AD4FFE704990020C885D3
:103A8000FFE7FFE70498006850E8030F20F4807018
:103A90000390FFE703990498026842E803100028A6
:103AA000F0D1FFE7FFE7FFE7FFE70498006850E881
:103AB000050F20F001000290FFE7029904980268C8
:103AC00042E805100028F0D1FFE7FFE7FFE7FFE736
:103AD0000498006850E8050F20F040000190FFE7CF
:103AE00001990498026842E805100028F0D1FFE728
:103AF000FFE70499202081F842000498006B012818
:103B000014D1FFE7FFE7FFE70498006850E8030FD0
:103B100020F010000090FFE700990498026842E846
:103B200003100028F0D1FFE7FFE7FFE7FFE7049964
:103B3000002048630498006B012805D1FFE7049832
:103B4000818DFEF733FE03E00498FFF797FAFFE755
:103B500006B080BD80B582B001900198806B009066
:103B60000099012048630098006B012806D1FFE707
:103B70000098818D4908FEF719FE03E00098FFF7D1
:103B800081FAFFE702B080BD84B00390FFE7FFE752
:103B90000398006850E8030F20F490700290FFE74C
:103BA00002990398026842E803100028F0D1FFE769
:103BB000FFE7FFE7FFE70398006850E8050F20F0F4
:103BC00001000190FFE701990398026842E805109F
:103BD0000028F0D1FFE7FFE70398006B012814D11C
:103BE000FFE7FFE7FFE70398006850E8030F20F0C6
:103BF00010000090FFE700990398026842E8031064
:103C00000028F0D1FFE7FFE7FFE70399202081F8C4
:103C1000420003990020086304B0704780B582B069
:103C2000019001980168C86820F04000C8600199BF
:103C3000202081F841000198FFF728FA002002B007
:103C400080BD000082B00190FFE7FFE701980068A7
:103C500050E8030F20F0C0000090FFE700990198A2
:103C6000026842E803100028F0D1FFE7FFE701995E
:103C7000202081F8410002B07047000080B586B076
:103C80000490002003900290049890F842002228AB
:103C900040F0A080FFE704988068B0F5805F13D102
:103CA000FFE70498006978B9FFE70498806A0290FA
:103CB0000498006840686FF35F20029908800499B7
:103CC000886A0230886223E00498806A039004982E
:103CD0008068B0F5805F08D0FFE70498806850B92D
:103CE000FFE70498006930B9FFE70498006840686E
:103CF0000399087007E004980068406800F07F00AE
:103D000003990870FFE70499886A01308862FFE729
:103D10000499C88D0138C8850004002856D1FFE7F2
:103D200004980168C86820F02000C8600498016801
:103D3000C86820F48070C86004980168486920F061
:103D4000010048610499202081F842000499002074
:103D500048630498006B012830D1FFE704990020E4
:103D60000863FFE7FFE70498006850E8030F20F0BE
:103D700010000190FFE701990498026842E80310DF
:103D80000028F0D1FFE7FFE7049800680068C0064C
:103D900000280ED5FFE7FFE7002000900498006898
:103DA0000068009004980068406800900098FFE761
:103DB000FFE70498818DFEF7F9FC03E00498FFF714
:103DC0005DF9FFE700208DF8170007E000208DF86F
:103DD000170003E002208DF81700FFE79DF8170099
:103DE00006B080BD80B586B0059005980068006972
:103DF00020F44050059A1168D26810430861059973
:103E000088680B694A69C9691843104308430490DC
:103E100005980068C06849F20C618843049908431A
:103E200005990968C86005980068406920F44070E9
:103E3000059A11689269104348610598006841F23B
:103E40000001C4F20101884209D0FFE7059800682B
:103E500041F20041C4F20101884204D1FFE7FDF7BD
:103E600045FB039003E0FDF72FFB0390FFE7059868
:103E7000C069B0F5004F29D1FFE703981921A0FBD5
:103E80000101059A1368029353685A00DB0FFCF78F
:103E900001FA0299864648F21F53C5F2EB13AEFBB6
:103EA0000320420910014FF0640C02FB1CEC32228B
:103EB00002EBCC02A2FB0332F82303EA521300EB1D
:103EC0004300C2F342121044886026E0039819218F
:103ED000A0FB0101059A1368019353689A009B0F98
:103EE000FCF7D8F90199844648F21F52C5F2EB124B
:103EF000ACFB02304309642003FB10CC322000EB02
:103F00000C10A0FB0202F02000EA521000EB03109C
:103F1000C2F3431210448860FFE706B080BD000082
:103F200080B58AB008900791ADF81A2007980899D3
:103F30008862BDF81A0008998885089900204864AD
:103F4000089A222182F842100899CA6B43F661212F
:103F5000C0F60001D1630899CA6B43F65531C0F62B
:103F6000000111640899CA6B43F6E511C0F600011F
:103F7000D1640899C96B086507A80590089801687D
:103F8000C06B0431059A1268BDF81A30FCF732FE96
:103F900058B1FFE70899102048640899202081F85B
:103FA000420001208DF827004EE0FFE7002004903A
:103FB00008980068006804900898006840680490B9
:103FC0000498FFE708980069A0B1FFE7FFE7FFE763
:103FD0000898006850E8030F40F480700390FFE7F2
:103FE00003990898026842E803100028F0D1FFE71F
:103FF000FFE7FFE7FFE7FFE70898006850E8050FD5
:1040000040F001000290FFE702990898026842E838
:1040100005100028F0D1FFE7FFE7FFE7FFE708986A
:10402000006850E8050F40F040000190FFE701995B
:104030000898026842E805100028F0D1FFE7FFE782
:1040400000208DF82700FFE79DF827000AB080BD0B
:1040500083B00190019890F8410021283AD1FFE700
:1040600001988068B0F5805F13D1FFE7019800697F
:1040700078B9FFE70198006A0090009800886FF314
:104080005F200199096848600199086A0230086256
:1040900008E0019A106A411C1162007801990968D0
:1040A0004860FFE70199C88C0138C884000468B9EA
:1040B000FFE701980168C86820F08000C860019897
:1040C0000168C86840F04000C860FFE700208DF834
:1040D0000B0003E002208DF80B00FFE79DF80B00BA
:1040E00003B0704780B540F2E420C2F20000FEF752
:1040F00005FC80BD80B540F22C30C2F20000FEF716
:10410000FDFB80BD80B582B00190009101987421C3
:10411000FCF738F9009840680199886600980078A3
:10412000019981F86400009880680199C866009838
:10413000C06801990867019840F27433C2F2000325
:104140001A78511C197040F2E831C2F2000141F8AE
:104150002200019800F002F802B080BD80B582B064
:1041600001900199886E91F86420FEF7C3FA0198D6
:10417000806EC06B0168086820F00800086002B01B
:1041800080BD0000FFE7FEE781B08DF803009DF9D8
:10419000030000280ED4FFE79DF9031001F01F0271
:1041A000012090404A094EF20011CEF2000141F880
:1041B0002200FFE701B070474EF60C50CEF200002F
:1041C0000068C0F30220704782B08DF807000091AC
:1041D0009DF9070000280AD4FFE7009800019DF927
:1041E00007104EF20042CEF2000288540BE0009815
:1041F00000019DF8071001F00F014EF61452CEF2A7
:1042000000028854FFE702B07047000083B00290BC
:10421000029800F0070000904EF60C51CEF200011B
:104220000868019001984FF6FF0210400190019834
:10423000009A40EA02200022C0F2FA521043019094
:104240000198086003B0704784B003908DF80B109C
:10425000FF2001900020ADF80200FFE7BDF9020049
:104260009DF80B10884230DAFFE70398BDF9021081
:10427000415C0198484001900020ADF80000FFE744
:10428000BDF90000072819DCFFE79DF804000006CF
:10429000002808D5FFE7019840000190019880F0C0
:1042A0001D00019003E0019840000190FFE7FFE747
:1042B000BDF800000130ADF80000E1E7FFE7BDF810
:1042C00002000130ADF80200C8E79DF8040080F05C
:1042D000FF0004B07047000080B582B001908DF8F7
:1042E000031001989DF80310FFF7AEFF02B080BDE8
:1042F00081B0ADF802009DF8030001B070470000E6
:1043000081B0ADF802009DF8020001B070470000D6
:10431000D0B502AF8AB08446B86807F809CC27F850
:104320000C1C27F80E2C47F8143C27F8160C37F80D
:104330000C0C4004002804D4FFE7012007F8170CF8
:1043400091E037F80C0C8004002804D4FFE7022029
:1043500007F8170C86E037F80C0CC004002804D4CA
:10436000FFE7032007F8170C7BE037F8161C022044
:1043700000EB410027F81A0C37F81A0C694647F889
:10438000201CC11D21F007026946891A47F82C1C20
:104390008D4647F8301C47F8240C37F80E0CFFF711
:1043A000A7FF57F82C1C087037F80E0CFFF7A8FF72
:1043B00057F82C1C4870002027F8260CFFE737F828
:1043C000260C37F8161C884225DAFFE757F8140C3C
:1043D00037F8261C30F81100FFF78AFF57F8301C19
:1043E00037F8262C01EB4201887057F8140C37F887
:1043F000261C30F81100FFF783FF57F8301C37F800
:10440000262C01EB4201C870FFE737F8260C01307B
:1044100027F8260CD3E737F80C0CFFF771FF01469D
:1044200057F8300C07F8271C17F81A1CFFF754FF31
:1044300007F8280C17F8280C17F8271C884204D115
:10444000FFE7002007F8170C07E0FF2007F8170C1C
:1044500017F8090C00F07AFAFFE757F8200C8546A8
:10446000FFE7FFE7FFE717F8170CA7F10804A546D9
:10447000D0BD00000000000080B584B08DF80E00B3
:1044800002910020ADF806009DF80E000DF1060126
:1044900000F020FA8DF805009DF8050028B1FFE72F
:1044A0009DF805008DF80F0016E0BDF9060000F03C
:1044B000D9FB41EC100B9FED0A1B53EC112B51EC77
:1044C000100B00F05FFC41EC100B029880ED000B2C
:1044D00000208DF80F00FFE79DF80F0004B080BDAD
:1044E000000000000080863F80B582B08DF8070094
:1044F00000919DF80700009900F0B0F902B080BD6E
:1045000080B590B000200D900F90FCF7FFFDFFF7F5
:10451000A7F9FEF7E5FEFEF797FEFEF79DFFFEF713
:1045200051FFFEF779FF40F27831C2F2000140F20C
:104530002C30C2F2000048606420087043F2F5108D
:10454000C0F60000886040F27000C2F20000FFF781
:10455000D9FD0D98FFF7ECF90D98FFF7E9F90D98E3
:1045600040F20811C2F200010870FFE700F04CFAB7
:1045700040F2E801C2F2000100200B90FFF77CFF3F
:1045800001460B988DF83B1040F2D431C2F2000185
:10459000FFF7AAFF8DF83A0040F2F001C2F20001E5
:1045A00001200C90FFF768FF01460C988DF8391038
:1045B00040F2D631C2F20001FFF796FF8DF83800C5
:1045C0009DF83B00002840F0CE80FFE79DF83A00C0
:1045D000002840F0C880FFE79DF83900002840F02F
:1045E000C280FFE79DF83800002840F0BC80FFE75C
:1045F00040F2E800C2F2000090ED000B40F2F8003B
:10460000C2F2000080ED000B90ED000B9FED581BF7
:1046100053EC112B51EC100B00F0B5FDC8B9FFE7BE
:1046200040F2F800C2F20000099090ED000B9FEDFF
:10463000521B53EC112B51EC100B00F023FA0246E5
:1046400009980A920A460A9942EC101B80ED000B69
:10465000FFE740F2F000C2F2000090ED000B40F2E4
:104660000010C2F2000080ED000B90ED000B9FEDFA
:10467000401B53EC112B51EC100B00F084FDC8B91A
:10468000FFE740F20010C2F20000079090ED000B2F
:104690009FED391B53EC112B51EC100B00F0F2F98C
:1046A0000246079808920A46089942EC101B80EDD2
:1046B000000BFFE740F2D430C2F20000B0F9000076
:1046C00000F0D0FA41EC100B40F2F800C2F200000A
:1046D00090ED001B8DED001B51EC100B9FED260B98
:1046E00053EC102B0393029200F04CFB9DED000B5A
:1046F00041EC110B51EC110B53EC102B00F0C2F9F3
:1047000041EC100B40F2D830C2F2000080ED000BFB
:1047100040F2D630C2F20000B0F9000000F0A2FA78
:10472000029A039B41EC100B40F20010C2F2000011
:1047300090ED001B8DED041B51EC100B00F022FBE3
:104740009DED040B41EC110B51EC110B53EC102BB4
:1047500000F098F941EC100B40F2E030C2F200009A
:1047600080ED000B00E0FFE70520FCF7A5FAFDE671
:104770000000000000000000000000000080764003
:1047800080B58AB08DF82600ADF82410089200207C
:10479000ADF81E00ADF81C00BDF82400ADF81A00FD
:1047A0009DF82600FFF7E6F840F28C20C2F20000E8
:1047B00002900DF11A0101220492FF230193FDF7EB
:1047C0006DFC019B049A029840F2000CC4F2020CAA
:1047D000CDF80CC0DCF8001041F44041CCF80010DA
:1047E00007A90591FDF732FB019B049A02980DF190
:1047F0001E01FDF72BFB03990868022262F38F303C
:1048000008609DF82600FFF793F8DDF810C0059BBF
:104810009DF82600BDF81E10BDF82420EE46CEF807
:1048200000C0FFF775FD8DF819009DF8190040B123
:10483000FFE70899002008809DF819008DF82700EF
:1048400007E0BDF81C000899088000208DF82700BB
:10485000FFE79DF827000AB080BD000080B584B056
:104860008DF80E0002910020ADF806009DF80E00B4
:1048700048F241410DF10602FFF782FF8DF8050075
:104880009DF8050038B1FFE7002002909DF8050073
:104890008DF80F0019E0BDF806006FF35F20ADF84A
:1048A00006009DF80700C00738B1FFE7BDF8060015
:1048B000A0F50070ADF80600FFE7BDF8060002990C
:1048C000088000208DF80F00FFE79DF80F0004B06E
:1048D00080BD000080B584B08DF80E0002910020EC
:1048E000ADF806009DF80E0048F221410DF10602D8
:1048F000FFF746FF8DF805009DF8050038B1FFE78A
:10490000002002909DF805008DF80F001AE0BDF818
:1049100006006FF3DF30ADF806009DF80700400693
:10492000002807D5FFE7BDF80600A0F50040ADF868
:104930000600FFE7BDF806000299088000208DF808
:104940000F00FFE79DF80F0004B080BD80B586B072
:104950008DF817000020ADF814009DF8170000F046
:104960002BF89DF81700FFF705F848F20100ADF8A5
:10497000140040F28C20C2F20000049005A90191BD
:1049800001220292FF230393FDF788FB0199029A0B
:10499000039B04984FF6FF7CADF814C0FDF77EFB37
:1049A0000199029A039B0498FDF778FB9DF8170084
:1049B000FEF7BEFF06B080BD80B584B08DF80F0055
:1049C0000020C4F202000090202100220192FCF796
:1049D00071FB009880210122FCF76CFB9DF80F0011
:1049E000FEF7C8FF01980290FFE70298952805DCC2
:1049F000FFE7FFE7029801300290F6E79DF80F000D
:104A0000FEF796FF04B080BD80B584B00020C4F2EC
:104A100002000190202100220292FCF74BFB01983A
:104A200080210122FCF746FB029A40F20040C4F2CA
:104A300002004FF48041FCF73DFB0198029A1021DF
:104A4000FCF738FB02980390FFE70398952805DCF4
:104A5000FFE7FFE7039801300390F6E740F20040DC
:104A6000C4F202004FF4804101220092FCF722FBC5
:104A7000009A0020C4F202001021FCF71BFB04B0D6
:104A800080BD000010B591EA030F48BF83F00043DA
:104A900000F17E82841A71EB030C05D2121943EBEC
:104AA0000C03001B61EB0C014FEA1154A4EB135CE7
:104AB000DFF81CE11EEA430F18BF9EEA445F00F0D6
:104AC000748021EA045123EA0E0343F48013DCF1DD
:104AD000200E32D322FA0CFE10EB0E0023FA0CFE4D
:104AE00041EB0E01CCF1200E03FA0EFE10EB0E008E
:104AF000CCF1200E51F10001B1F5801F32D201EB53
:104B0000045112FA0EF2BDE8104058BF7047401C25
:104B100038BF5FEA420218BF7047002814BF20F078
:104B2000010041F100014FEA410313F5001F38BFB6
:104B30007047A1F1C04100F01DBA012A43EB030206
:104B4000ACF1200CDCF11F0E32BF4FF0000E23FA47
:104B50000CF310EB030041EB0451B4EB115FD0D028
:104B6000A1EB045101F58011490801EB04515FEA02
:104B700030000ED350F1000038BF12FA0EFE08D1FB
:104B8000BDE81040C9E7401C38BF5FEA4202CAD105
:104B9000C3E7BDE810404FEA410313F5001F38BFDB
:104BA0007047A1F1C04100F0E5B99EEA445F08D02A
:104BB00011EA5E0FBDE8104004BF01F00041002083
:104BC0007047BDE8104070B500F086F964FBBE3E4A
:104BD0000000E0FF491058BFC1F140415B1058BFD1
:104BE000C3F140438B42EFF30080704751EA030C5E
:104BF00017D41CF5801F58BFBCF5801F00F106803C
:104C0000994218BF704708BF9042704707D711F507
:104C1000801F58BF13F5801F19D4994270478942ED
:104C200070471CF5801F08D5BCF5801FF7D58B4257
:104C300018BF704708BF824270474FF4001C1CEB3E
:104C4000410F38BF1CEB430F01D28B42704770B548
:104C500000F042F9922449004FF000514FF0805388
:104C6000FFF7B8BF10F0004248BF4042B0FA80F3EF
:104C700010FA03F10AD0C3F11D0303F5806302EBC0
:104C800003524FEA415002EBD12170474FF0000030
:104C90007047000051EA030C17D41CF5801F58BF61
:104CA000BCF5801F00F10680994218BF704708BF0D
:104CB0009042704707D711F5801F58BF13F5801F2A
:104CC00019D499427047894270471CF5801F08D556
:104CD000BCF5801FF7D58B4218BF704708BF8242D2
:104CE00070474FF4001C1CEB410F38BF1CEB430F07
:104CF00001D28B42704770B500F0EEF89224490063
:104D00004FF080514FF00053FFF764BF51EA030C9E
:104D100017D41CF5801F58BFBCF5801F00F106801A
:104D2000994218BF704708BF9042704707D711F5E6
:104D3000801F58BF13F5801F19D4994270478942CC
:104D400070471CF5801F08D5BCF5801FF7D58B4236
:104D500018BF704708BF824270474FF4001C1CEB1D
:104D6000410F38BF1CEB430F01D28B42704770B527
:104D700000F0B2F8922449004FF000514FF08053F8
:104D8000FFF728BF70B5DFF848C11CEA111E1EBF2F
:104D90001CEA13159EEA0C0F95EA0C0F00F06F80C9
:104DA00081EA03044EEAD47EAE4421EA4C1123EAA0
:104DB0004C1341F4801143F48013AEF17F7EA1FBCC
:104DC000024CA0FB0365361955EB0C05A1FB034C07
:104DD0004CF10003A0FB021C16EB0C06654153F1DD
:104DE0000003094218BF46F0010613F4007F0BD1FF
:104DF0004FEA03314FEA053041EA155140EA1650B7
:104E000034036FF003020AE04FEAC3214FEAC520E2
:104E100041EA555140EA5650F4026FF0020202EBAB
:104E20002E4201EB025585EACE710AD05FEA440CAE
:104E300018BF24F0004450F1000041F1000120EAC5
:104E4000D47040F2FE7C624500D270BDA84214BF0F
:104E50004FF080444FF04044002E08BF0024BEF1C4
:104E6000806FA8BFA1F1C041BDE8704080F2828090
:104E700001F1C04101F000414FF0000070470CEA21
:104E800013159EEA0C0F18BF95EA0C0F06D081EAA5
:104E9000030E4FF000000EF0004170BD00F01CF852
:104EA0008900013E00F007B800F009B84FEA430C52
:104EB0005FEA5C5C08D081EA030100F05BB84FEA6E
:104EC000410C5FEA5C5CF6D102494FF0000070478C
:104ED0000000FF070000F87F0EF1020E2EF0030E17
:104EE0005EF8046B364205D4012A43EB030515F541
:104EF000001F12D8012841EB010C1CF5001F0CD833
:104F00000ED14FEAD17C0CEB4C0C0CF1020C15F5D8
:104F1000001F08BF4CEBD37C04E04FF0080C01E00D
:104F20004FEAD37C0CEB4C0526FA05F606F0070693
:104F3000B6F1040C06D20EEB860CBDE870404CF0C6
:104F4000010C6047DFE80CF0090B02024FF0004152
:104F5000A1F500214FF0000070BD19461046012850
:104F600051EB010418BFD4F5001484BF002001F0F8
:104F7000004170BD0808A0F500114FEA31017047EB
:104F800010B591EA030F48BF83F000433FF582ADAF
:104F9000841A71EB030C07D28CF0004C121943EB0E
:104FA0000C03001B61EB0C014FEA1154A4EB135CE2
:104FB000DFF8A4E11EEA430F18BF9EEA445F00F049
:104FC000B48021EA045123EA6E035242C3EB6E031C
:104FD00038BF5B1EDCF1200E25D322FA0CFE10EB4D
:104FE0000E0043FA0CFE41EB0E01CCF1200E03FA49
:104FF0000EFE10EB0E00CCF1200E51F1000129D471
:1050000001EB045112FA0EF2BDE8104058BF704790
:10501000401C1CBFB2F1004F704700280CBF491C58
:1050200020F00100704712EB020E43EB030218BFA1
:105030004FF0010E4EEA4202ACF1200CDCF11E0EE4
:1050400056D943FA0CFE10EB0E00CCF11E0E51F1B6
:10505000FF31D5D50EF1010E12FA0EFE404141EBA3
:10506000010101EB445C5FEA5C5C10D901EB045187
:1050700010EBDE7038BFBEF1004FBDE8104018BF26
:10508000704700280CBF491C20F00100704734D243
:105090004FEAD42C24F4006411F500111BD0B1FAAE
:1050A00081F20B3AA41AA41ED2F12003914030FAE7
:1050B00003F31943904001EBCC7101EB0451002C38
:1050C000BDE81040A8BF704701F1C04101F00041A8
:1050D0004FF000007047B0FA80F310FA03F102D1EC
:1050E000BDE810407047E41A173C4805C90AE2E7DA
:1050F00001EB0451BDE81040704749104FEA300001
:1051000001EB0451BDE8104002E04FF00001704790
:105110004A0008BF0042F8D0B2F5001F28BF704710
:1051200001F000414FF0000070479EEA445F07D055
:1051300011EA5E0FBDE8104004BF00210020704757
:10514000BDE8104070B5FFF7C7FE00BF40DFF63E78
:10515000104683F0004170470000E0FF10B5FFF7F4
:1051600045FD0CBF0120002010BD10B5FFF73EFD2E
:1051700014BF0120002010BD10B5FFF78BFD8CBFC0
:105180000120002010BD10B5FFF784FD2CBF0120C9
:10519000002010BD10B5FFF7B9FD94BF012000201D
:1051A00010BD10B5FFF7B2FD34BF0120002010BDC7
:1051B000F1EE100A4FF6FF71C0F2C03120EA010093
:1051C00040F04070E1EE100A70470000000000005F
:1051D00000000102030406070809000000000102A4
:1051E00003040006101600061016000010520008F6
:1051F0000000002010000000EC0100082052000810
:1052000010000020F00900000C020008000000005F
:105210000024F40001000000100000000000000065
:040000050800018965
:00000001FF
