:020000040800F2
:10000000A80A0020550200086D360008C133000818
:10001000693600086D040008554300080000000020
:10002000000000000000000000000000D1390008BE
:10003000F907000800000000DD360008293A000832
:100040006F0200086F0200086F0200086F020008CC
:100050006F0200086F0200086F0200086F020008BC
:100060006F0200086F0200086F0200086F020008AC
:100070006F0200086F0200086F0200086F0200089C
:1000800021060008310600086F0200086F02000810
:100090006F0200086F0200086F0200086F0200087C
:1000A0006F0200086F0200086F0200086F0200086C
:1000B0006F0200086F0200086F0200086F0200085C
:1000C0006F0200086F0200086F0200086F0200084C
:1000D0006F020008B5420008C54200086F02000820
:1000E0006F0200086F0200086F0200086F0200082C
:1000F0006F0200086F0200086F0200086F0200081C
:100100006F0200086F0200086F0200086F0200080B
:100110006F0200086F0200086F0200086F020008FB
:100120006F0200086F020008410600086F02000815
:100130006F02000800000000000000006F020008CD
:100140006F0200086F0200086F0200086F020008CB
:100150006F0200086F020008510600086F020008D5
:100160006F0200086F0200086F0200086F020008AB
:100170006F0200086F02000800000000000000008D
:100180006F0200086F02000800F002F800F052F859
:1001900014A696E8000CB244B344DA4501D100F04D
:1001A00049F8BAE80F000FA696E83000A5EB040561
:1001B00004EB0607AAEB0704A7F101074FEA1515A0
:1001C0004FEA3414A4F10104AC4201D300F032F838
:1001D00013F0010F18BFFB1A43F0010300F001F800
:1001E000DBE71847405D0000605D0000103A24BF67
:1001F00078C878C1FAD8520724BF30C830C144BF8C
:1002000004680C6070470000704700000023002461
:1002100000250026103A28BF78C1FBD8520728BF16
:1002200030C148BF0B6070471FB505F048FE1FBDC9
:1002300010B510BD00F0E4F81146FFF7F5FF04F02B
:100240005BFA00F002F903B4FFF7F2FF03BC00F021
:1002500005F900000948804709480047FEE7FEE726
:10026000FEE7FEE7FEE7FEE7FEE7FEE7FEE7FEE766
:1002700004480549054A064B70470000ED3A00085E
:1002800089010008A8040020A80A0020A806002070
:10029000A806002053EA020C00F069802DE9F04B1B
:1002A0004FF00006002B1FBFB3FA83F503FA05F4E5
:1002B00024FA05F65E4012BF1643B2FA82F502FA3E
:1002C00005F4C5F120051EBF22FA05FC44EA0C0422
:1002D000203556EA044C4FEA144418BF641C4FF012
:1002E00000084FF00009904271EB030C39D300294C
:1002F00019BFB1FA81F701FA07F6B0FA80F700FAF0
:1003000007F6C7F120071EBF20FA07FC46EA0C06D5
:100310002037B6FBF4FCA7EB0507103F07F01F0BD7
:10032000CBF120062CFA06F60CFA0BFB44BFB346C1
:100330000026202FA4BF5E464FF0000B5BEA060CA0
:1003400008BF4FF0010B19EB0B0948EB0608ABFB9C
:10035000027C06FB02CC0BFB03CCC01B71EB0C0137
:10036000C1E70B46024641464846BDE8F08B13B54F
:10037000084318BF4FF0FF300146AFF30080BDE8DF
:100380001C4070474FF0000200B513469446964655
:10039000203922BFA0E80C50A0E80C50B1F1200198
:1003A000BFF4F7AF090728BFA0E80C5048BF0CC046
:1003B0005DF804EB890028BF40F8042B08BF7047A4
:1003C00048BF20F8022B11F0804F18BF00F8012B16
:1003D000704770477047704710B500F009F8006823
:1003E00010BD10B5044600F003F8046010BD000015
:1003F000004870471000002000487047100000209F
:100400007546FFF7F9FFAE4605006946534620F0F2
:100410000700854618B020B5FFF72AFFBDE8204049
:100420004FF000064FF000074FF000084FF0000BB0
:10043000AC46ACE8C009ACE8C009ACE8C009ACE81F
:10044000C00921F007018D46704710B50446AFF38F
:1004500000802046BDE81040FFF7F5BE0149182096
:10046000ABBEFEE72600020070470000FFE7FEE794
:1004700080B592B08DED110ACDED100A8DED0F1AF9
:10048000CDED0E1A8DED0D2A9DED0D0AB5EE400A4B
:10049000F1EE10FA01DCFFE7B5E09DED110A9DEDEC
:1004A0000D1A80EE010A8DED0C0A9DED100A9DEDEE
:1004B0000D1A80EE010A8DED0B0A9DED0C0A9FEDE1
:1004C000531A20EE010A9FED522A20EE020A8DED0A
:1004D0000A0A9DED0B0A20EE010A20EE020A8DEDBC
:1004E000090A9DED0F0A20EE010A40F25C40C2F2BB
:1004F0000000059080ED020A9DED0E0A20EE010A33
:1005000080ED050A9DED0A0A9DED091A30EE010AFB
:100510009FED401A20EE010A80ED010A9DED0A0AC6
:100520009DED091A30EE411A90ED020A9FED3A2A2C
:1005300020EE020A30EE010A9FED381A80EE010A21
:1005400080ED000A90ED000A8DED020A90ED050A9B
:1005500004F0F2FC05988DED010A90ED010A8DED95
:10056000000A90ED050A04F08FFD9DED001A9DED47
:10057000012A0598B0EE403A9DED020A21EE031AD9
:1005800020EE020A30EE410A9DED0D1A20EE010A1E
:100590008DED080A90ED000A8DED060A90ED050A32
:1005A00004F072FD05988DED040A90ED010A8DEDC1
:1005B000030A90ED050A04F0BFFC9DED031A9DEDC2
:1005C000042A0598B0EE403A9DED060A21EE031A82
:1005D00020EE020A30EE010A9DED0D1A20EE010A0E
:1005E0008DED070A9DED081A90ED030A30EE010A21
:1005F00080ED030A9DED071A90ED040A30EE010A22
:1006000080ED040AFFE712B080BD00BF34FA8E3CD3
:100610002575C23CF304353F9A99993EF304B53FE2
:1006200080B540F23820C2F2000000F083F980BDAE
:1006300080B540F29820C2F2000000F07BF980BD46
:1006400080B540F27810C2F2000000F073F980BD6E
:1006500080B540F2D810C2F2000000F06BF980BD06
:1006600082B001900198007810384AF6AB21CAF6A2
:10067000AA21A0FB011000090090009945F61C700A
:10068000C0F60000405C0199C8650098042807D3B3
:10069000FFE701990868042262F30900886506E013
:1006A0000199086840F2FF3290438865FFE701989E
:1006B000806D02B07047000086B0059000208DF874
:1006C00013000598806A03900598806910BBFFE7C6
:1006D0000398029003281BD80299DFE801F0020D6D
:1006E0000218059890F82F00C00720B1FFE70120FD
:1006F0008DF81300FFE70CE00598C06AB0F1C07FE9
:1007000004D1FFE701208DF81300FFE701E000E0CE
:10071000FFE745E005988069B0F5005F25D1FFE768
:100720000398019003281ED80199DFE801F0020622
:10073000021101208DF8130016E0059890F82F00A3
:10074000C00720B1FFE701208DF81300FFE70BE0A1
:100750000598C06AB0F1C07F04D1FFE701208DF891
:100760001300FFE700E0FFE719E00398009003287B
:1007700004D3FFE70098032804D00EE001208DF891
:1007800013000BE0059890F82F00C00720B1FFE799
:1007900001208DF81300FFE700E0FFE7FFE7FFE728
:1007A0009DF8130006B0704784B003900291019247
:1007B000009303980168086820F48020086000987E
:1007C00003990968486003988068402809D1FFE7C9
:1007D0000198039909688860029803990968C860BC
:1007E00008E00298039909688860019803990968EC
:1007F000C860FFE704B070477047000072B6FFE7BB
:10080000FEE7000080B584B002900298806D0190F0
:1008100000F050FD0090029890F8350002280DD0AD
:10082000FFE7029980204865FFE70299002081F8E0
:100830003400FFE701208DF80F0055E002980168B1
:10084000086820F01600086002980168486920F0E6
:10085000800048610298006C20B9FFE70298806C24
:1008600038B1FFE702980168086820F008000860C6
:10087000FFE702980168086820F001000860FFE7C0
:10088000029800680068C007C8B1FFE700F012FDD9
:100890000099401A062811D3FFE7029920204865E5
:1008A0000299032081F83500FFE70299002081F8C2
:1008B0003400FFE703208DF80F0015E0E0E7029811
:1008C000C16D3F208840019988600299012081F81C
:1008D0003500FFE70299002081F83400FFE7FFE7C9
:1008E00000208DF80F00FFE79DF80F0004B080BDD9
:1008F00082B00090009890F83500022807D0FFE7FA
:1009000000998020486501208DF807000EE00099CD
:10091000052081F8350000980168086820F0010082
:100920000860FFE700208DF80700FFE79DF807004B
:1009300002B0704780B586B005900020039040F269
:100940000000C2F20000006848F2B511C1F64E3155
:10095000A0FB0110800A02900598806D019001981B
:100960000068049004980599C96DC84000070028E4
:100970001AD5FFE70598006800684007002812D5DF
:10098000FFE705980168086820F0040008600598F2
:10099000C16D08208840019988600599486D40F034
:1009A00001004865FFE7FFE704980599C96DC84055
:1009B000C007A0B1FFE7059800684069000600285D
:1009C0000CD5FFE70598C16D01208840019988602A
:1009D0000599486D40F002004865FFE7FFE704987D
:1009E0000599C96DC8404007002814D5FFE7059850
:1009F00000680068800700280CD5FFE70598C16DE6
:100A000004208840019988600599486D40F00400F1
:100A10004865FFE7FFE704980599C96DC840C0061F
:100A2000002847D5FFE70598006800680007002800
:100A30003FD5FFE70598C16D102088400199886077
:100A4000059800680068400300281AD5FFE705985C
:100A5000006800680003002809D4FFE70598006CCF
:100A600020B1FFE70598016C8847FFE708E005988B
:100A7000806C20B1FFE70598816C8847FFE7FFE7AE
:100A800016E0059800680068C005002807D4FFE755
:100A900005980168086820F008000860FFE70598DD
:100AA000006C20B1FFE70598016C8847FFE7FFE77E
:100AB000FFE7FFE704980599C96DC8408006002844
:100AC00040F18D80FFE7059800680068C0060028A7
:100AD00040F18480FFE70598C16D2020884001998E
:100AE0008860059890F83500052834D1FFE705980F
:100AF0000168086820F016000860059801684869D8
:100B000020F0800048610598006C20B9FFE7059847
:100B1000806C38B1FFE705980168086820F008008C
:100B20000860FFE70598C16D3F2088400199886003
:100B30000599012081F83500FFE70599002081F82B
:100B40003400FFE70598006D20B1FFE70598016DBF
:100B50008847FFE77BE005980068006840030028AD
:100B60001AD5FFE70598006800680003002809D43B
:100B7000FFE70598406C20B1FFE70598416C884776
:100B8000FFE708E00598C06B20B1FFE70598C16B4F
:100B90008847FFE7FFE720E0059800680068C00588
:100BA000002811D4FFE705980168086820F01000BC
:100BB00008600599012081F83500FFE705990020BC
:100BC00081F83400FFE7FFE70598C06B20B1FFE72D
:100BD0000598C16B8847FFE7FFE7FFE7FFE7059848
:100BE000406DA0B3FFE70598406DC00730B3FFE745
:100BF0000599052081F8350005980168086820F0FE
:100C000001000860FFE703980130039002998842D1
:100C100001D9FFE707E0FFE7059800680068C00713
:100C20000028F0D1FFE70599012081F83500FFE7A2
:100C30000599002081F83400FFE7FFE70598C06CB4
:100C400020B1FFE70598C16C8847FFE7FFE706B0D2
:100C500080BD000080B586B004900020039000F0B5
:100C600029FB0290049820B9FFE701208DF81700B6
:100C7000A3E00498406A08B1FFE7FFE70499022067
:100C800081F83500FFE70499002081F83400FFE780
:100C900004980168086820F001000860FFE70498E4
:100CA00000680068C00790B1FFE700F003FB0299FD
:100CB000401A06280AD3FFE70499202048650499C2
:100CC000032081F835008DF8170076E0E7E70498F7
:100CD000006800680390039848F23F01CFF21001CA
:100CE00008400390049900914868D1F808C0CB6887
:100CF0000A6940EA0C00184310434A6910438A69A4
:100D00001043CA691043096A0143039808430390DA
:100D10000498406A042808D1FFE70499C86A096B5F
:100D20000143039808430390FFE703980499096877
:100D300008600498006840690390039820F0070059
:100D400003900498416A0398084303900498406A0A
:100D500004281AD1FFE70498816A03980843039096
:100D60000498C06A80B1FFE70498FFF7A5FC50B172
:100D7000FFE70499402048650499012081F8350077
:100D80008DF8170019E0FFE7FFE703980499096859
:100D900048610498FFF764FC01900498C16D3F20FE
:100DA000884001998860049900204865049A0121CF
:100DB00082F835108DF81700FFE79DF8170006B090
:100DC00080BD000080B588B0069005910492039321
:100DD00000208DF80B000698806D0190FFE70698C3
:100DE00090F83400012804D1FFE702208DF81F009D
:100DF00045E00699012081F83400FFE7FFE70698F7
:100E000090F8350001282BD1FFE70699022081F8E0
:100E1000350006990020486506980599049A039BB9
:100E2000FFF7C2FC0698C16D3F2088400199886099
:100E300006980168086840F0160008600698006C83
:100E400038B1FFE706980168086840F008000860BC
:100E5000FFE706980168086840F00100086009E0B3
:100E6000FFE70699002081F83400FFE702208DF8A3
:100E70000B00FFE79DF80B008DF81F00FFE79DF8C2
:100E80001F0008B080BD000080B584B0039000F062
:100E900011FA0290039801900198013048B1FFE7E0
:100EA00040F20500C2F20000017801980844019068
:100EB000FFE7FFE700F0FEF90299401A0199884226
:100EC00001D2FFE7F6E704B080BD00008EB00D90C0
:100ED0000C9100200A90099008900B90FFE70B9866
:100EE0000F2800F2CC81FFE70B99012088400A907F
:100EF0000C9800680A990840099009980A99884254
:100F000040F0B881FFE70C98406800F0030001282A
:100F100007D0FFE70C98406800F0030002282FD1AB
:100F2000FFE70D98806808900B984100032000FAB5
:100F300001F10898884308900C98C0680B99490003
:100F400000FA01F108980843089008980D99886004
:100F50000D98406808900B99012000FA01F108985B
:100F6000884308900C984068C0F300100B9900FA71
:100F700001F108980843089008980D994860FFE728
:100F80000C98406800F00300032818D0FFE70D9884
:100F9000C06808900B984100032000FA01F10898FE
:100FA000884308900C9880680B99490000FA01F179
:100FB00008980843089008980D99C860FFE70C98B6
:100FC000406800F00300022826D1FFE70D980B9936
:100FD0006FF0030202EA51010844006A08900B987E
:100FE00000F0070081000F2000FA01F10898884303
:100FF00008900C9800690B9901F00701890000FA2C
:1010000001F108980843089008980D990B9B02EA93
:10101000530211440862FFE70D98006808900B988E
:101020004100032000FA01F10898884308900C98C9
:10103000406800F003000B99490000FA01F108989C
:101040000843089008980D9908600C9880798007EB
:10105000002800F00E81FFE7FFE70020079043F62D
:101060004400C4F20200016841F48041016000685C
:1010700000F4804007900798FFE70B9820F00300EA
:1010800043F60801C4F20101405808900B9800F0A3
:10109000030081000F2000FA01F1089888430890AE
:1010A0000D980021C4F20201884203D1FFE700201D
:1010B00006905EE00D9840F20041C4F202018842C1
:1010C00003D1FFE70120059050E00D9840F60001A4
:1010D000C4F20201884203D1FFE70220049042E0FB
:1010E0000D9840F60041C4F20201884203D1FFE7A7
:1010F0000320039034E00D9841F20001C4F2020194
:10110000884203D1FFE70420029026E00D9841F2C7
:101110000041C4F20201884203D1FFE7052001909B
:1011200018E00D9841F60001C4F20201884203D193
:10113000FFE7062000900AE00D9941F60042C4F254
:1011400002020820914208BF07200090FFE70098A4
:101150000190FFE701980290FFE702980390FFE7F4
:1011600003980490FFE704980590FFE70598069020
:10117000FFE70698C0B20B9901F00301890000FA5D
:1011800001F108980843089008980B9921F0030191
:1011900043F60802C4F20102885043F60840C4F244
:1011A00001000068089009990898884308900C98F5
:1011B0008079C006002805D5FFE7099908980843FB
:1011C0000890FFE7089843F60841C4F2010108605F
:1011D00043F60C40C4F20100006808900999089891
:1011E000884308900C9880798006002805D5FFE791
:1011F0000999089808430890FFE7089843F60C41BE
:10120000C4F20101086043F60440C4F20100006822
:10121000089009990898884308900C98807980076D
:10122000002805D5FFE70999089808430890FFE7CB
:10123000089843F60441C4F20101086043F60040F7
:10124000C4F2010000680890099908988843089042
:101250000C988079C00728B1FFE7099908980843DE
:101260000890FFE7089843F60041C4F201010860C6
:10127000FFE7FFE7FFE70B9801300B902FE60EB07A
:101280007047000082B00190ADF802108DF8012087
:101290009DF8010028B1FFE7BDF8020001998861BF
:1012A00005E0BDF80200000401998861FFE702B083
:1012B0007047000040F2A440C2F20000006870478E
:1012C00040F20500C2F20000027840F2A441C2F2EE
:1012D00000010868104408607047000080B543F6BC
:1012E0000041C4F20201086840F400700860086818
:1012F00040F480600860086840F480700860032053
:1013000000F08AF80F2000F005F800F03BF800200C
:1013100080BD000080B582B0009040F20000C2F2B3
:101320000000006840F20501C2F200010A784FF4A3
:101330007A71B1FBF2F1B0FBF1F001F0BBFA20B130
:10134000FFE701208DF8070018E000980F280DD85E
:10135000FFE700994FF0FF30002200F043F80098BB
:1013600040F20801C2F20001086003E001208DF89C
:10137000070003E000208DF80700FFE79DF8070055
:1013800002B080BD82B0FFE70020019043F6440028
:10139000C4F20200016841F480410160006800F479
:1013A000804001900198FFE7FFE70020009043F69E
:1013B0004000C4F20200016841F080510160006801
:1013C00000F0805000900098FFE702B070470000E6
:1013D00080B582B08DF807009DF9070002F0BCFFD0
:1013E00002B080BD80B586B08DF8170004910392DD
:1013F0000020029002F0C8FF02909DF917000190B2
:1014000002980499039A02F033F90146019802F018
:10141000C3FF06B080BD000080B582B00190019886
:1014200002F0DCFF02B080BD80B584B00290019173
:10143000029820B9FFE701208DF80F0021E1019803
:1014400043F60041C4F20201096801F00701884235
:1014500012D9FFE7019943F60040C4F2020001707F
:10146000006800F007000199884204D0FFE70120DE
:101470008DF80F0005E1FFE702980078800700284B
:101480002AD5FFE7029800784007002809D5FFE732
:1014900043F60801C4F20201086840F4E050086015
:1014A000FFE7029800780007002809D5FFE743F618
:1014B0000801C4F20201086840F460400860FFE7D8
:1014C00043F60801C4F20201086820F0F000029A15
:1014D000926810430860FFE702980078C007002870
:1014E0006ED0FFE702984068012811D1FFE743F66C
:1014F0000000C4F20200006800F400310020B0EBEC
:10150000514F04D1FFE701208DF80F00B9E02CE026
:1015100002984068022805D0FFE702984068032837
:1015200011D1FFE743F60000C4F20200006800F0AA
:1015300000710020B0EB516F04D1FFE701208DF85E
:101540000F009EE010E043F60000C4F202000068C5
:1015500000F002010020B0EB510F04D1FFE70120A1
:101560008DF80F008DE0FFE7FFE743F60801C4F2B6
:101570000201086820F00300029A526810430860D4
:10158000FFF798FE0090FFE743F60800C4F2020060
:10159000006800F00C0002994968B0EB810F0ED092
:1015A000FFE7FFF787FE0099401A41F28931884230
:1015B00004D3FFE703208DF80F0062E0E4E7FFE7C4
:1015C000019843F60041C4F20201096801F00701E5
:1015D000884212D2FFE7019943F60040C4F20200AC
:1015E0000170006800F007000199884204D0FFE70D
:1015F00001208DF80F0044E0FFE7029800784007D3
:1016000000280CD5FFE743F60801C4F20201086880
:1016100020F4E050029AD26810430860FFE7029875
:101620000078000700280DD5FFE743F60801C4F253
:101630000201086820F46040029A126940EAC20080
:101640000860FFE700F04CF843F60801C4F202011D
:101650000968C9B20A0945F60471C0F60001895C3F
:10166000C84040F20001C2F20001086040F20800E8
:10167000C2F200000068FFF74DFE00208DF80F0059
:10168000FFE79DF80F0004B080BD000040F20000AD
:10169000C2F200000068704780B5FFF7F7FF43F61D
:1016A0000801C4F202010968C1F3822245F61471EF
:1016B000C0F60001895CC84080BD000080B5FFF71E
:1016C000E5FF43F60801C4F20201096889B24A0B3A
:1016D00045F61471C0F60001895CC84080BD000069
:1016E00080B586B00020059004900390029043F6E8
:1016F0000800C4F20200006800F00C0001460191ED
:1017000040B1FFE7019804280AD0FFE701980828B4
:101710000CD04FE042F20040C0F2F40002904FE0E3
:1017200041F60030C0F2B700029049E043F60400F1
:10173000C4F20200016801F03F0105910068400217
:10174000002813D5FFE743F60400C4F20200006846
:10175000C0F3881041F60031C0F2B701A0FB0101CF
:10176000059A0023FEF796FD049012E043F604006C
:10177000C4F202000068C0F3881042F20041C0F2D7
:10178000F401A0FB0101059A0023FEF783FD0490FC
:10179000FFE743F60400C4F20200006800F44031A1
:1017A000022000EBD130039004980399B0FBF1F0D4
:1017B000029005E042F20040C0F2F4000290FFE720
:1017C000029806B080BD000080B586B004900498F1
:1017D00020B9FFE701208DF8170050E30498007846
:1017E000C007002800F0A580FFE743F60800C4F218
:1017F0000200006800F00C00042813D0FFE743F655
:101800000800C4F20200006800F00C0008281ED195
:10181000FFE743F60400C4F202000068400200281B
:1018200015D5FFE743F60000C4F20200006800F49B
:1018300000310020B0EB514F08D0FFE7049840681A
:1018400020B9FFE701208DF8170018E370E0FFE7EB
:1018500004984068B0F5803F09D1FFE743F60001E6
:10186000C4F20201086840F48030086020E0049867
:101870004068B0F5A02F0DD1FFE743F60001C4F298
:101880000201086840F480200860086840F4803055
:1018900008600CE043F60001C4F20201086820F47D
:1018A00080300860086820F480200860FFE7FFE7C8
:1018B000FFE704984068E8B1FFE7FFF7FBFC0390FF
:1018C000FFE743F60000C4F20200006800F40031B4
:1018D0000020B0EB514F0CD1FFE7FFF7EBFC039971
:1018E000401A652804D3FFE703208DF81700C6E2ED
:1018F000E7E71CE0FFF7DEFC0390FFE743F600009C
:10190000C4F20200006800F400310020B0EB514F37
:101910000CD0FFE7FFF7CEFC0399401A652804D3EB
:10192000FFE703208DF81700A9E2E7E7FFE7FFE7ED
:10193000FFE7049800788007002840F19680FFE7D1
:1019400043F60800C4F20200006810F00C0F13D038
:10195000FFE743F60800C4F20200006800F00C0044
:1019600008282CD1FFE743F60400C4F20200006807
:101970004002002823D4FFE743F60000C4F202002F
:10198000006800F002010020B0EB510F09D0FFE722
:101990000498C068012804D0FFE701208DF81700E3
:1019A0006DE243F60001C4F20201086820F0F8007D
:1019B000049A126940EAC2000860FFE754E0049804
:1019C000C06870B3FFE70021C4F24721012008601E
:1019D000FFF770FC0390FFE743F60000C4F202003B
:1019E000006800F002010020B0EB510F0CD1FFE7BE
:1019F000FFF760FC0399401A032804D3FFE7032094
:101A00008DF817003BE2E7E743F60001C4F202015C
:101A1000086820F0F800049A126940EAC2000860E1
:101A200021E00021C4F2472100200860FFF742FCBA
:101A30000390FFE743F60000C4F20200006800F0E4
:101A400002010020B0EB510F0CD0FFE7FFF732FC92
:101A50000399401A032804D3FFE703208DF81700E9
:101A60000DE2E7E7FFE7FFE7FFE7049800780007EC
:101A700000284BD5FFE70498406918B3FFE740F60C
:101A80008061C4F2472101200860FFF713FC039036
:101A9000FFE743F67400C4F20200006800F00201A0
:101AA0000020B0EB510F0CD1FFE7FFF703FC0399C7
:101AB000401A032804D3FFE703208DF81700DEE166
:101AC000E7E722E040F68061C4F247210020086089
:101AD000FFF7F0FB0390FFE743F67400C4F2020047
:101AE000006800F002010020B0EB510F0CD0FFE7BE
:101AF000FFF7E0FB0399401A032804D3FFE7032014
:101B00008DF81700BBE1E7E7FFE7FFE704980078EF
:101B10004007002840F1CE80FFE700208DF8070045
:101B200043F64000C4F202000068C000002815D44B
:101B3000FFE7FFE70020009043F64000C4F20200F8
:101B4000016841F080510160006800F08050009011
:101B50000098FFE701208DF80700FFE747F200003B
:101B6000C4F200000068C005002822D4FFE747F255
:101B70000001C4F20001086840F480700860FFF7BB
:101B800099FB0390FFE747F20000C4F200000068F1
:101B9000C00500280CD4FFE7FFF78CFB0399401A1F
:101BA000032804D3FFE703208DF8170067E1EAE775
:101BB000FFE7FFE704988068012809D1FFE743F6B3
:101BC0007001C4F20201086840F0010008601FE0E3
:101BD0000498806805280DD1FFE743F67001C4F230
:101BE0000201086840F004000860086840F0010045
:101BF00008600CE043F67001C4F20201086820F0AE
:101C000001000860086820F004000860FFE7FFE7B3
:101C1000FFE704988068F8B1FFE7FFF74BFB0390FC
:101C2000FFE743F67000C4F20200006800F0020112
:101C30000020B0EB510F0ED1FFE7FFF73BFB0399FC
:101C4000401A41F28931884204D3FFE703208DF81E
:101C5000170014E1E5E71EE0FFF72CFB0390FFE718
:101C600043F67000C4F20200006800F00201002098
:101C7000B0EB510F0ED0FFE7FFF71CFB0399401AA2
:101C800041F28931884204D3FFE703208DF8170021
:101C9000F5E0E5E7FFE79DF80700012809D1FFE738
:101CA00043F64001C4F20201086820F08050086049
:101CB000FFE7FFE704988069002800F0DC80FFE779
:101CC00043F60800C4F20200006800F00C00082887
:101CD00000F08580FFE70498806902285CD1FFE767
:101CE0006021C4F2472100200860FFF7E3FA039067
:101CF000FFE743F60000C4F20200006800F0007144
:101D00000020B0EB516F0CD0FFE7FFF7D3FA039937
:101D1000401A032804D3FFE703208DF81700AEE034
:101D2000E7E70499C869D1F820C04B6A8A6A40EA9B
:101D30000C0040EA8310D2034FF6FF739A43A2F5DA
:101D400080321043C96A40EA016043F60401C4F2DC
:101D5000020108606021C4F2472101200860FFF7FA
:101D6000A9FA0390FFE743F60000C4F202000068FE
:101D700000F000710020B0EB516F0CD1FFE7FFF7CE
:101D800099FA0399401A032804D3FFE703208DF83A
:101D9000170074E0E7E721E06021C4F2472100204A
:101DA0000860FFF787FA0390FFE743F60000C4F2EC
:101DB0000200006800F000710020B0EB516F0CD001
:101DC000FFE7FFF777FA0399401A032804D3FFE7E8
:101DD00003208DF8170052E0E7E7FFE74AE0049898
:101DE0008069012804D1FFE701208DF8170046E043
:101DF00043F60400C4F2020000680290049880696F
:101E0000012831D0FFE7029800F480000499C969E5
:101E1000884229D1FFE7029800F03F000499096A3F
:101E2000884221D1FFE7029847F6C0710840049923
:101E3000496AB0EB811F17D1FFE7029800F44030E8
:101E40000499896AC9034FF6FF729143A1F5803165
:101E5000884209D1FFE7029800F070600499C96ACE
:101E6000B0EB016F04D0FFE701208DF8170006E00A
:101E7000FFE7FFE7FFE700208DF81700FFE79DF879
:101E8000170006B080BD000080B584B002900298B3
:101E900020B9FFE701208DF80F0072E00298406A38
:101EA00060B9FFE702984068B0F5827F01D1FFE793
:101EB00003E002990020C861FFE705E002990020D5
:101EC000086102994861FFE7029900208862029840
:101ED00090F8510040B9FFE70299002081F85000C6
:101EE000029800F053F8FFE70299022081F85100B0
:101EF00002980168086820F040000860029A019288
:101F000011685068D2F808C0D36800F482700CF4ED
:101F1000044C604403F400631844136903F00203A3
:101F20001844536903F001031844936903F40073E0
:101F30001844D36903F038031844136A03F080038C
:101F40001843926A02F40052104308600298016834
:101F50008369426A042000EA134002F01002104430
:101F6000486002980168C86920F40060C86102995D
:101F700000204865029A012182F851108DF80F0067
:101F8000FFE79DF80F0004B080BD000080B588B069
:101F90000790002006900590049003900290079807
:101FA000006843F20001C4F20101884233D1FFE727
:101FB000FFE70020019043F64400C4F202000168EC
:101FC00041F480510160006800F480500190019854
:101FD000FFE7FFE70020009043F63000C4F2020064
:101FE000016841F001010160006800F0010000900B
:101FF0000098FFE7E0200290022003900020049068
:1020000003200590052006900020C4F2020002A9DA
:10201000FEF75CFFFFE708B080BD000080B588B028
:1020200006900591ADF812200393069890F85100A0
:10203000012804D0FFE702208DF81F0011E1059868
:1020400020B1FFE7BDF8120020B9FFE701208DF8AD
:102050001F0006E106984068B0F5827F16D1FFE7C1
:102060000698806890B9FFE70699042081F851002E
:102070000698059ABDF812300399EC46CCF800108A
:10208000114600F045FA8DF81F00EAE0FFF712F95B
:102090000290FFE7069890F85000012804D1FFE76E
:1020A00002208DF81F00DCE00699012081F8500025
:1020B000FFE7FFE70699042081F851000699002008
:1020C00048650599069A9163BDF81210069A9187A2
:1020D000BDF81210069AD18706990863069988867A
:1020E0000699C88606990864069948640698806827
:1020F000B0F5004F0DD1FFE706980168086820F0A1
:102100004000086006980168086820F48040086074
:10211000FFE706980068006800F04000402807D0FC
:10212000FFE706980168086840F040000860FFE794
:102130000698C068D0BBFFE7FFE70698C08FA0B342
:10214000FFE7069800688068C00778B1FFE7069847
:102150000068007B0699896B08700699886B0130CE
:1021600088630699C88F0138C8871DE0FFF7A2F879
:102170000299401A0399884204D3FFE7039801307B
:1021800018B9FFE7039870B9FFE70699012081F8B5
:102190005100FFE70699002081F85000FFE7032077
:1021A0008DF81F005DE0FFE7C7E739E0FFE706981D
:1021B000C08FA0B3FFE7069800688068C00778B1B9
:1021C000FFE706980068C0680699896B0880069941
:1021D000886B023088630699C88F0138C8871DE074
:1021E000FFF768F80299401A0399884204D3FFE781
:1021F0000398013018B9FFE7039870B9FFE7069913
:10220000012081F85100FFE70699002081F8500075
:10221000FFE703208DF81F0023E0FFE7C7E7FFE794
:1022200006980399029A01F065FA20B1FFE7069932
:1022300020204865FFE70699012081F85100FFE75B
:102240000699002081F85000FFE70698406D20B104
:10225000FFE701208DF81F0003E000208DF81F002C
:10226000FFE79DF81F0008B080BD000080B588B072
:1022700006900591ADF812200393FFF71BF802902A
:10228000BDF81200ADF80600069890F8510001283C
:1022900004D0FFE702208DF81F0034E1059820B13B
:1022A000FFE7BDF8120020B9FFE701208DF81F00FD
:1022B00029E1FFE7069890F85000012804D1FFE7D4
:1022C00002208DF81F001EE10699012081F85000C0
:1022D000FFE7FFE70699032081F8510006990020E7
:1022E00048650599069A1163BDF81210069A918601
:1022F000BDF81210069AD1860699886306998887D8
:102300000699C88706994864069908640698806803
:10231000B0F5004F0DD1FFE706980168086820F07E
:102320004000086006980168086840F48040086032
:10233000FFE706980068006800F04000402807D0DA
:10234000FFE706980168086840F040000860FFE772
:102350000698C068B0F5006F51D1FFE70698406855
:1023600028B1FFE7BDF8060001280ED1FFE7069867
:102370000168006B0088C8600699086B023008632A
:102380000699C88E0138C886FFE7FFE70698C08E19
:10239000A0B3FFE7069800688068800700280ED584
:1023A000FFE706980168006B0088C8600699086B13
:1023B000023008630699C88E0138C8861DE0FEF712
:1023C00079FF0299401A0399884204D3FFE70398E2
:1023D000013018B9FFE7039870B9FFE706990120AB
:1023E00081F85100FFE70699002081F85000FFE7CF
:1023F00003208DF81F0086E0FFE7C7E750E006984E
:10240000406828B1FFE7BDF8060001280ED1FFE7BC
:1024100006980168006B007808730699086B013014
:1024200008630699C88E0138C886FFE7FFE706985B
:10243000C08EA0B3FFE70698006880688007002878
:102440000ED5FFE706980168006B007808730699BF
:10245000086B013008630699C88E0138C8861DE0F4
:10246000FEF728FF0299401A0399884204D3FFE738
:102470000398013018B9FFE7039870B9FFE7069990
:10248000012081F85100FFE70699002081F85000F3
:10249000FFE703208DF81F0035E0FFE7C7E7FFE700
:1024A00006980399029A01F097F920B1FFE706997F
:1024B00020204865FFE70698806870B9FFE7FFE7CE
:1024C0000020009006980068C06800900698006898
:1024D000806800900098FFE7FFE70699012081F8E7
:1024E0005100FFE70699002081F85000FFE70698A9
:1024F000406D20B1FFE701208DF81F0003E00020B0
:102500008DF81F00FFE79DF81F0008B080BD000098
:1025100080B58CB0DDF838C00A9009910892ADF80A
:102520001E3001200390FEF7C5FE04900A9890F833
:1025300051008DF817000A9840680690BDF81E00FB
:10254000ADF81C009DF81700012812D0FFE706988F
:10255000B0F5827F09D1FFE70A98806828B9FFE7C4
:102560009DF81700042804D0FFE702208DF82F0003
:102570009BE1099838B1FFE7089820B1FFE7BDF863
:102580001E0020B9FFE701208DF82F008DE1FFE745
:102590000A9890F85000012804D1FFE702208DF836
:1025A0002F0082E10A99012081F85000FFE7FFE740
:1025B0000A9890F85100042805D0FFE70A990520F1
:1025C00081F85100FFE70A990020486508990A9AA6
:1025D0009163BDF81E100A9AD187BDF81E100A9AA1
:1025E000918709990A9A1163BDF81E100A9AD1863B
:1025F000BDF81E100A9A91860A9908640A994864DF
:102600000A980068006800F04000402807D0FFE703
:102610000A980168086840F040000860FFE70A98DF
:10262000C068B0F5006F40F08180FFE70A9840680D
:1026300028B1FFE7BDF81C0001280ED1FFE70A987A
:102640000168006B0088C8600A99086B0230086353
:102650000A99C88E0138C886FFE7FFE70A98C18E3D
:102660000120019039B9FFE70A98C08F002818BFF0
:1026700001200190FFE70198C007002855D0FFE72F
:102680000A98006880688007002818D5FFE70A9834
:10269000C08EA0B1FFE70398012810D1FFE70A9888
:1026A0000168006B0088C8600A99086B02300863F3
:1026B0000A99C88E0138C88600200390FFE70A985F
:1026C00000688068C007A8B1FFE70A98C08F88B18A
:1026D000FFE70A980068C0680A99896B08800A9920
:1026E000886B023088630A99C88F0138C887012037
:1026F0000390FFE7FEF7DEFD0499401A0E99884229
:1027000012D3FFE70E98013070B1FFE70A9901205C
:1027100081F85100FFE70A99002081F85000FFE797
:1027200003208DF82F00C0E098E782E00A98406807
:1027300028B1FFE7BDF81C0001280ED1FFE70A9879
:102740000168006B007808730A99086B0130086310
:102750000A99C88E0138C886FFE7FFE70A98C18E3C
:102760000120009039B9FFE70A98C08F002818BFF0
:1027700001200090FFE70098C007002858D0FFE72D
:102780000A98006880688007002818D5FFE70A9833
:10279000C08EA0B1FFE70398012810D1FFE70A9887
:1027A0000168006B007808730A99086B01300863B0
:1027B0000A99C88E0138C88600200390FFE70A985E
:1027C00000688068C007A8B1FFE70A98C08F88B189
:1027D000FFE70A980068C0680A99896B08700A992F
:1027E000886B013088630A99C88F0138C887012037
:1027F0000390FFE7FEF75EFD0499401A0E998842A8
:1028000004D3FFE70E98013018B9FFE70E9870B9AE
:10281000FFE70A99012081F85100FFE70A9900209B
:1028200081F85000FFE703208DF82F003DE095E789
:10283000FFE70A980E99049A00F0CEFF68B1FFE70F
:102840000A9920204865FFE70A99002081F8500086
:10285000FFE701208DF82F0027E00A98806870B903
:10286000FFE7FFE7002002900A980068C068029026
:102870000A980068806802900298FFE7FFE70A99CB
:10288000012081F85100FFE70A99002081F85000EB
:10289000FFE70A98406D20B1FFE701208DF82F0077
:1028A00003E000208DF82F00FFE79DF82F000CB00B
:1028B00080BD000080B582B00190019801F08AF8D7
:1028C00002B080BD80B586B004900391ADF80A20B7
:1028D000049890F84200202848D1FFE7039820B1DF
:1028E000FFE7BDF80A0020B9FFE701208DF81700C7
:1028F00040E004990120086304990020486304988B
:102900000399BDF80A2001F0F3FB8DF80900049843
:10291000006B012821D1FFE7FFE700200190049818
:102920000068006801900498006840680190019870
:10293000FFE7FFE7FFE70498006850E8030F40F067
:1029400010000090FFE700990498026842E8031025
:102950000028F0D1FFE7FFE703E001208DF8090030
:10296000FFE79DF809008DF8170003E002208DF8BD
:102970001700FFE79DF8170006B080BD80B584B052
:102980000390ADF80A1000208DF80900FFE79DF8CC
:10299000090040F2E031C2F200010978884250DAC1
:1029A000FFE703989DF8092040F29041C2F2000130
:1029B00051F82210896E88423CD1FFE79DF809103A
:1029C00040F29040C2F2000050F82100C06EB0B159
:1029D000FFE79DF8091040F29040C2F2000001901C
:1029E00050F82100C16E006F884701989DF80910CA
:1029F00050F82100BDF80A10FDF7C4FCFFE79DF870
:102A0000091040F29040C2F20000009050F82110EE
:102A1000886E91F86420FFF755FF00989DF8091023
:102A200050F82100806EC06B0168086820F0080033
:102A3000086006E0FFE79DF8090001308DF8090005
:102A4000A5E704B080BD000080B584B003900020ED
:102A50008DF80B00FFE79DF80B0040F2E031C2F269
:102A60000001097888422FDAFFE703989DF80B20D0
:102A700040F29041C2F2000151F82210896E884262
:102A80001BD1FFE79DF80B1040F29040C2F200000E
:102A9000019050F82110886E91F86420FFF712FF22
:102AA00001989DF80B1050F82100806EC06B0168F2
:102AB000086820F00800086006E0FFE79DF80B00BA
:102AC00001308DF80B00C6E704B080BD80B592B030
:102AD0001190119800680068109011980068C06803
:102AE0000F901198006840690E9000200D900C9096
:102AF000109800F00F000D900D9888B9FFE79DF831
:102B00004000800600280AD5FFE79DF83C008006BB
:102B1000002804D5FFE7119801F098F902E2FFE7D9
:102B20000D98002800F0C280FFE79DF83800C0072C
:102B300038B9FFE7BDF83C0010F4907F00F0B68094
:102B4000FFE79DF84000C00758B1FFE79DF83D0042
:102B5000C00730B1FFE71199486C40F001004864AC
:102B6000FFE79DF84000400700280BD5FFE79DF8E0
:102B70003800C00730B1FFE71199486C40F00200FF
:102B80004864FFE79DF84000800700280BD5FFE769
:102B90009DF83800C00730B1FFE71199486C40F04C
:102BA00004004864FFE79DF840000007002811D5A5
:102BB000FFE79DF83C008006002805D4FFE79DF85C
:102BC0003800C00730B1FFE71199486C40F00800A9
:102BD0004864FFE71198406C002866D0FFE79DF835
:102BE0004000800600280AD5FFE79DF83C008006DB
:102BF000002804D5FFE7119801F028F9FFE71198A4
:102C000000684069C0F380100C901198406C000778
:102C1000002804D4FFE70C9800283ED0FFE7119865
:102C200001F09AF8119800684069400600282FD5F5
:102C3000FFE7FFE7FFE71198006850E8050F20F075
:102C400040000B90FFE70B991198026842E80510CD
:102C50000028F0D1FFE7FFE71198C06B98B1FFE7BC
:102C60001198C16B43F69930C0F6000008651198C1
:102C7000C06BFDF73DFE28B1FFE71198C06B016DF9
:102C80008847FFE703E01198FFF7DEFEFFE703E068
:102C90001198FFF7D9FEFFE706E01198FFF7D4FE81
:102CA000119900204864FFE7FFE73BE11198006BB2
:102CB000012840F01781FFE79DF84000C00600287A
:102CC00040F11081FFE79DF83C00C006002840F16C
:102CD0000981FFE7FFE700200A901198006800686B
:102CE0000A901198006840680A900A98FFE71198C6
:102CF000006840694006002840F19A80FFE711987B
:102D0000C06B00684068ADF82600BDF826000028BA
:102D100075D0FFE7BDF826001199898D88426EDADB
:102D2000FFE7BDF826001199C8851198C06BC069EE
:102D3000B0F5807F58D0FFE7FFE7FFE71198006804
:102D400050E8030F20F480700890FFE7089911986D
:102D5000026842E803100028F0D1FFE7FFE7FFE731
:102D6000FFE71198006850E8050F20F00100079078
:102D7000FFE707991198026842E805100028F0D192
:102D8000FFE7FFE7FFE7FFE71198006850E8050F4E
:102D900020F040000690FFE706991198026842E88B
:102DA00005100028F0D1FFE7FFE71199202081F8F6
:102DB0004200119900200863FFE7FFE711980068BF
:102DC00050E8030F20F010000590FFE705991198D7
:102DD000026842E803100028F0D1FFE7FFE71198EE
:102DE000C06BFDF70FFDFFE71199022048631198B2
:102DF000818DC28D891A89B2FFF7C0FD17E0BDF839
:102E000026001199898D884210D1FFE71198C06B77
:102E1000C069B0F5807F08D1FFE7119902204863AF
:102E20001198818DFFF7AAFDFFE7FFE7FFE779E043
:102E30001199888DC98D401AADF812001198C08D76
:102E400000284ED0FFE7BDF81200002849D0FFE768
:102E5000FFE7FFE71198006850E8030F20F4907037
:102E60000390FFE703991198026842E803100028D5
:102E7000F0D1FFE7FFE7FFE7FFE71198006850E8B0
:102E8000050F20F001000290FFE7029911980268F7
:102E900042E805100028F0D1FFE7FFE71199202054
:102EA00081F84200119900200863FFE7FFE71198BD
:102EB000006850E8030F20F010000190FFE701992F
:102EC0001198026842E803100028F0D1FFE7FFE7FD
:102ED0001199022048631198BDF81210FFF74EFDBA
:102EE000FFE71FE09DF84000000600280AD5FFE735
:102EF0009DF83C000006002804D5FFE7119801F07A
:102F00008FF90FE09DF84000400600280AD5FFE742
:102F10009DF83C004006002804D5FFE7119800F01A
:102F200065FFFFE712B080BD80B582B000900098C9
:102F300020B9FFE701208DF8070040E00098806984
:102F400008B1FFE700E0FFE7009890F8410040B9C2
:102F5000FFE70099002081F84000009800F034F865
:102F6000FFE70099242081F8410000980168C868B3
:102F700020F40050C860009801F01CF80098016827
:102F8000086920F49040086100980168486920F0C1
:102F90002A00486100980168C86840F40050C86081
:102FA000009900204864009A202182F84110009A7C
:102FB00082F84210009948638DF80700FFE79DF8FA
:102FC000070002B080BD000080B592B011900020D3
:102FD00010900F900E900D900C901198006841F297
:102FE0000001C4F20101884240F09280FFE7FFE750
:102FF00000200B9043F64400C4F20200016841F047
:1030000010010160006800F010000B900B98FFE7C2
:10301000FFE700200A9043F63000C4F20200016886
:1030200041F001010160006800F001000A900A9877
:10303000FFE74FF4C0600C9002200D900020069036
:103040000E9003200F90072010900020C4F2020081
:103050000CA9FDF73BFF069940F27810C2F2000080
:10306000079046F24042C4F2020202604FF0006252
:1030700042608160C1604FF48062026141618161A0
:10308000C16101624162FDF7E5FD18B1FFE7FDF79F
:10309000B5FBFFE7FFE7119840F27811C2F200019B
:1030A000C16311988863FFE740F2D810C2F20000B4
:1030B000059046F2B841C4F2020101604FF0006190
:1030C0004160402181600021C1604FF48062026153
:1030D00041618161C16101624162FDF7BBFD18B1CF
:1030E000FFE7FDF78BFBFFE7FFE7119840F2D811F0
:1030F000C2F20001816311988863FFE725200490E4
:1031000000221146FEF76EF90498FEF761F99AE085
:103110001198006844F20041C4F20001884240F076
:103120009180FFE7FFE70020099043F64000C4F2DA
:103130000200016841F400310160006800F40030D1
:1031400009900998FFE7FFE70020089043F6300058
:10315000C4F20200016841F001010160006800F062
:10316000010008900898FFE70C200C9002200D90B9
:10317000002002900E9003200F9007201090002056
:10318000C4F202000CA9FDF7A1FE029940F238201A
:10319000C2F20000039046F28802C4F2020202600A
:1031A0004FF0006242608160C1604FF48062026152
:1031B00041618161C16101624162FDF74BFD18B15E
:1031C000FFE7FDF71BFBFFE7FFE7119840F238210F
:1031D000C2F20001C16311988863FFE740F29820B2
:1031E000C2F20000019046F2A001C4F202010160A7
:1031F0004FF000614160402181600021C1604FF4C7
:103200008062026141618161C16101624162FDF7D9
:1032100021FD18B1FFE7FDF7F1FAFFE7FFE711988D
:1032200040F29821C2F20001816311988863FFE7A0
:103230002620009000221146FEF7D4F80098FEF7F1
:10324000C7F8FFE7FFE712B080BD000081B0009033
:1032500001B0704781B0009001B0704781B000901C
:1032600001B0704780B584B00390029106200190B0
:1032700002980199405C03990870029801990844EA
:10328000043000F02DFA039880ED110A029801999C
:103290000844083000F078FC03998864029801998A
:1032A00008440C3000F01CFA039880ED010A0298E3
:1032B00001990844103000F013FA039880ED020AD7
:1032C000029801990844143000F00AFA039880ED3E
:1032D000030A029801990844183000F001FA039893
:1032E00080ED040A0298019908441C3000F0F8F9B6
:1032F000039880ED050A029801990844203000F0F7
:10330000EFF9039880ED060A0298019908442430E9
:1033100000F0E6F9039880ED070A02980199084445
:10332000283000F0DDF9039880ED080A0298019931
:1033300008442C3000F0D4F9039880ED090A029873
:1033400001990844303000F0CBF9039880ED0A0A67
:10335000029801990844343000F0C2F9039880EDD6
:103360000B0A029801990844383000F0B9F9039823
:1033700080ED0C0A0298019908443C3000F0B0F945
:10338000039880ED0D0A029801990844403000F03E
:10339000A7F9039880ED0E0A029801990844443079
:1033A00000F09EF9039880ED0F0A029801990844F5
:1033B000483000F095F9039880ED100A04B080BD04
:1033C000FFE7FEE780B584B0039040F27000C2F2E0
:1033D00000000290029800785A281AD1FFE702985C
:1033E0004078A52815D1FFE702998878C97840EA86
:1033F0000120ADF80600BDF906004C2801D0FFE71A
:1034000007E0029940F2FC30C2F20000FFF72AFF09
:10341000FFE704B080BD000080B588B0FFE7002062
:10342000079043F63000C4F20200016841F4001135
:103430000160006800F4001007900798FFE7FFE7BD
:103440000020069043F63000C4F20200016841F407
:1034500080010160006800F4800006900698FFE794
:1034600010200190002204921146FDF7BBFF019845
:10347000FDF7AEFF049A112002901146FDF7B2FF4E
:103480000298FDF7A5FF049A3A2003901146FDF734
:10349000A9FF0398FDF79CFF049A4620059011466A
:1034A000FDF7A0FF0598FDF793FF08B080BD000071
:1034B00080B590B000200F900E900D900C900B9066
:1034C000FFE700200A9043F63000C4F202000168D2
:1034D00041F080010160006800F080000A900A98C5
:1034E000FFE7FFE70020099043F63000C4F2020036
:1034F000016841F001010160006800F001000990DD
:103500000998FFE7FFE70020089043F63000C4F277
:103510000200016841F002010160006800F0020051
:1035200008900898FFE70020C4F2020001901021E3
:10353000009101220292FDF7A5FE029A40F200409E
:10354000C4F2020005904FF480410791FDF79AFE06
:10355000009A019802990B920C91002103910D9110
:10356000022104910E910BA90691FDF7AFFCDDF845
:1035700008C0039B049A05980699DDF81CE0CDF875
:103580002CE0CDF830C00D930E92FDF79FFC10B0EB
:1035900080BD000080B582B040F2F820C2F2000089
:1035A000019043F20001C4F2010101604FF4827105
:1035B0004160002181604FF40062C260016101221C
:1035C00042614FF4007282611022C2610162416265
:1035D00081620A21C162FEF757FC18B1FFE7FDF7CF
:1035E0000DF9FFE702B080BD80B582B040F25030E7
:1035F000C2F20000019041F20001C4F20101016039
:103600004FF4E131416000218160C16001610C2211
:1036100042618161C161FFF787FC18B1FFE7FDF7E7
:10362000EDF8FFE702B080BD80B582B040F298307F
:10363000C2F20000019044F20041C4F200010160B6
:103640004FF4E131416000218160C16001610C22D1
:1036500042618161C161FFF767FC18B1FFE7FDF7C7
:10366000CDF8FFE702B080BDFFE7FEE7FFE7FEE72A
:1036700088B0079006910592079800F00700049023
:103680000498C0F10700052803D3FFE70420019048
:1036900004E00498C0F107000190FFE7019803904F
:1036A00004980430062803D8FFE70020009003E0C8
:1036B000049803380090FFE7009802900698039959
:1036C000012202FA01F101390840029B9840059954
:1036D0009A40013A1140084308B070477047000013
:1036E00082B001900198006800909DED000A02B040
:1036F0007047000080B586B0049003910292049850
:103700004068B0F5827F13D1FFE704988068B0F578
:10371000004F06D0FFE704988068B0F5806F07D1AE
:10372000FFE704980168086820F040000860FFE7A0
:1037300004984068B0F5827F31D1FFE70498806833
:10374000B0F5806F15D0FFE70498039B02996A4695
:1037500011608021002200F0A5F848B1FFE704992C
:10376000486D40F02000486503208DF817002FE0D9
:1037700014E00498039B02996A461160012100221B
:1037800000F090F848B1FFE70499486D40F0200040
:10379000486503208DF817001AE0FFE714E004984D
:1037A000039B02996A4611600121002200F07AF819
:1037B00048B1FFE70499486D40F0200048650320B8
:1037C0008DF8170004E0FFE700208DF81700FFE7F1
:1037D0009DF8170006B080BD80B586B004900391B7
:1037E00002920498039B02996A4611600221012209
:1037F00000F058F848B1FFE70499486D40F0200008
:10380000486503208DF8170048E040F20000C2F23E
:10381000000000684AF6AB21CAF6AA21A0FB0110FD
:1038200000094FF2A171C1F2C601A0FB0110000C0A
:103830004FF47A714843019004984068B0F5827F54
:1038400015D1FFE70498039B02996A461160802115
:10385000002200F027F848B1FFE70499486D40F0D6
:103860002000486503208DF8170017E012E0FFE7FD
:10387000019808B9FFE70CE0019801380190FFE7D3
:10388000049800688068C1B20020B0EBD11FEFD16E
:10389000FFE7FFE700208DF81700FFE79DF817000E
:1038A00006B080BD80B58AB0DDF830C008900791C1
:1038B0008DF81B20059305980190FDF7FBFC02464F
:1038C00001980C99891A08440390FDF7F3FC0290C3
:1038D000039840F20001C2F200010968C1F3CB3144
:1038E00048430490FFE708980068806807990840FB
:1038F000401AB0FA80F040099DF81B1088425FD052
:10390000FFE705980130002859D0FFE7FDF7D2FC0A
:103910000299401A0399884204D2FFE703980028CD
:1039200042D1FFE708980168486820F0E00048604D
:1039300008984068B0F5827F13D1FFE70898806847
:10394000B0F5004F06D0FFE708988068B0F5806FAB
:1039500007D1FFE708980168086820F04000086078
:10396000FFE70898806AB0F5005F0FD1FFE7FFE737
:1039700008980168086820F40050086008980168F9
:10398000086840F400500860FFE7FFE7089901204D
:1039900081F85100FFE70899002081F85000FFE707
:1039A00003208DF827000FE0049818B9FFE70020E6
:1039B000039003E0049801380490FFE7FFE792E7E3
:1039C00000208DF82700FFE79DF827000AB080BD92
:1039D0007047000080B582B0009000980138B0F1C7
:1039E000807F03D3FFE70120019019E000980138A0
:1039F0004EF21401CEF2000108604FF0FF300F21AB
:103A000000F0CAFC4EF21801CEF20001002008605E
:103A10004EF21002CEF20002072111600190FFE782
:103A2000019802B080BD000080B5FDF749FC80BD63
:103A300080B594B008A83021FCF7A4FC00200790C2
:103A40000690059004900390FFE70020029043F653
:103A50004000C4F20200016841F08051016000683A
:103A600000F0805002900298FFE7FFE700200190ED
:103A700047F20000C4F20000016841F48041016097
:103A8000006800F4804001900198FFE70120089051
:103A90004FF48030099002200E904FF480010F9176
:103AA00006211091A821119112900420139008A8CA
:103AB000FDF78AFE18B1FFE7FCF7A0FEFFE70F2035
:103AC000039002200490002005904FF4A05006902F
:103AD0004FF48050079003A80521FDF7A5FC18B10D
:103AE000FFE7FCF78BFEFFE714B080BD4EF6885170
:103AF000CEF20001086840F47000086070470000D2
:103B000080B582B08DF807009DF8070050B9FFE737
:103B100040F20040C4F202004FF480410122FDF760
:103B2000B1FB0DE09DF80700012808D1FFE7002058
:103B3000C4F2020010210122FDF7A4FBFFE7FFE71A
:103B400002B080BD80B582B08DF807009DF80700F7
:103B500050B9FFE740F20040C4F202004FF4804148
:103B60000022FDF78FFB0DE09DF80700012808D12A
:103B7000FFE70020C4F2020010210022FDF782FBC3
:103B8000FFE7FFE702B080BD82B0019001980068B6
:103B90000090009802B0704780B582B00190019803
:103BA000806B009000990020C8850098FEF74CFFBC
:103BB00002B080BD80B584B00390002002900398CD
:103BC000806B0190019800684069C0B2C009029002
:103BD000019890F8410021280AD1FFE7029838B1F6
:103BE000FFE701990020C884019800F013F9FFE76E
:103BF000019800684069C0F380100290019890F825
:103C0000420022280AD1FFE7029838B1FFE7019964
:103C10000020C885019800F09FF8FFE70199486CE3
:103C200040F0100048640198FEF70EFF04B080BD1C
:103C300080B586B005900598806B04900598006863
:103C40000068C00500285AD4FFE704990020C88501
:103C5000FFE7FFE70498006850E8030F20F4807046
:103C60000390FFE703990498026842E803100028D4
:103C7000F0D1FFE7FFE7FFE7FFE70498006850E8AF
:103C8000050F20F001000290FFE7029904980268F6
:103C900042E805100028F0D1FFE7FFE7FFE7FFE764
:103CA0000498006850E8050F20F040000190FFE7FD
:103CB00001990498026842E805100028F0D1FFE756
:103CC000FFE70499202081F842000498006B012846
:103CD00014D1FFE7FFE7FFE70498006850E8030FFF
:103CE00020F010000090FFE700990498026842E875
:103CF00003100028F0D1FFE7FFE7FFE7FFE7049993
:103D0000002048630498006B012805D1FFE7049860
:103D1000818DFEF733FE03E00498FFF797FAFFE783
:103D200006B080BD80B582B001900198806B009094
:103D30000099012048630098006B012806D1FFE735
:103D40000098818D4908FEF719FE03E00098FFF7FF
:103D500081FAFFE702B080BD84B00390FFE7FFE780
:103D60000398006850E8030F20F490700290FFE77A
:103D700002990398026842E803100028F0D1FFE797
:103D8000FFE7FFE7FFE70398006850E8050F20F022
:103D900001000190FFE701990398026842E80510CD
:103DA0000028F0D1FFE7FFE70398006B012814D14A
:103DB000FFE7FFE7FFE70398006850E8030F20F0F4
:103DC00010000090FFE700990398026842E8031092
:103DD0000028F0D1FFE7FFE7FFE70399202081F8F3
:103DE000420003990020086304B0704780B582B098
:103DF000019001980168C86820F04000C8600199EE
:103E0000202081F841000198FFF728FA002002B035
:103E100080BD000082B00190FFE7FFE701980068D5
:103E200050E8030F20F0C0000090FFE700990198D0
:103E3000026842E803100028F0D1FFE7FFE701998C
:103E4000202081F8410002B07047000080B586B0A4
:103E50000490002003900290049890F842002228D9
:103E600040F0A080FFE704988068B0F5805F13D130
:103E7000FFE70498006978B9FFE70498806A029028
:103E80000498006840686FF35F20029908800499E5
:103E9000886A0230886223E00498806A039004985C
:103EA0008068B0F5805F08D0FFE70498806850B95B
:103EB000FFE70498006930B9FFE70498006840689C
:103EC0000399087007E004980068406800F07F00DC
:103ED00003990870FFE70499886A01308862FFE758
:103EE0000499C88D0138C8850004002856D1FFE721
:103EF00004980168C86820F02000C8600498016830
:103F0000C86820F48070C86004980168486920F08F
:103F1000010048610499202081F8420004990020A2
:103F200048630498006B012830D1FFE70499002012
:103F30000863FFE7FFE70498006850E8030F20F0EC
:103F400010000190FFE701990498026842E803100D
:103F50000028F0D1FFE7FFE7049800680068C0067A
:103F600000280ED5FFE7FFE70020009004980068C6
:103F70000068009004980068406800900098FFE78F
:103F8000FFE70498818DFEF7F9FC03E00498FFF742
:103F90005DF9FFE700208DF8170007E000208DF89D
:103FA000170003E002208DF81700FFE79DF81700C7
:103FB00006B080BD80B586B00590059800680069A0
:103FC00020F44050059A1168D268104308610599A1
:103FD00088680B694A69C96918431043084304900B
:103FE00005980068C06849F20C6188430499084349
:103FF00005990968C86005980068406920F4407018
:10400000059A11689269104348610598006841F269
:104010000001C4F20101884209D0FFE70598006859
:1040200041F20041C4F20101884204D1FFE7FDF7EB
:1040300045FB039003E0FDF72FFB0390FFE7059896
:10404000C069B0F5004F29D1FFE703981921A0FB03
:104050000101059A1368029353685A00DB0FFCF7BD
:1040600019F90299864648F21F53C5F2EB13AEFBCD
:104070000320420910014FF0640C02FB1CEC3222B9
:1040800002EBCC02A2FB0332F82303EA521300EB4B
:104090004300C2F342121044886026E003981921BD
:1040A000A0FB0101059A1368019353689A009B0FC6
:1040B000FCF7F0F80199844648F21F52C5F2EB1262
:1040C000ACFB02304309642003FB10CC322000EB30
:1040D0000C10A0FB0202F02000EA521000EB0310CB
:1040E000C2F3431210448860FFE706B080BD0000B1
:1040F00080B58AB008900791ADF81A200798089902
:104100008862BDF81A0008998885089900204864DB
:10411000089A222182F842100899CA6B43F631416D
:10412000C0F60001D1630899CA6B43F62551C0F669
:10413000000111640899CA6B43F6B531C0F600015D
:10414000D1640899C96B086507A8059008980168AB
:10415000C06B0431059A1268BDF81A30FCF732FEC4
:1041600058B1FFE70899102048640899202081F889
:10417000420001208DF827004EE0FFE70020049068
:1041800008980068006804900898006840680490E7
:104190000498FFE708980069A0B1FFE7FFE7FFE791
:1041A0000898006850E8030F40F480700390FFE720
:1041B00003990898026842E803100028F0D1FFE74D
:1041C000FFE7FFE7FFE7FFE70898006850E8050F03
:1041D00040F001000290FFE702990898026842E867
:1041E00005100028F0D1FFE7FFE7FFE7FFE7089899
:1041F000006850E8050F40F040000190FFE701998A
:104200000898026842E805100028F0D1FFE7FFE7B0
:1042100000208DF82700FFE79DF827000AB080BD39
:1042200083B00190019890F8410021283AD1FFE72E
:1042300001988068B0F5805F13D1FFE701980069AD
:1042400078B9FFE70198006A0090009800886FF342
:104250005F200199096848600199086A0230086284
:1042600008E0019A106A411C1162007801990968FE
:104270004860FFE70199C88C0138C884000468B918
:10428000FFE701980168C86820F08000C8600198C5
:104290000168C86840F04000C860FFE700208DF862
:1042A0000B0003E002208DF80B00FFE79DF80B00E8
:1042B00003B0704780B540F25030C2F20000FEF704
:1042C00005FC80BD80B540F29830C2F20000FEF7D8
:1042D000FDFB80BD80B582B00190009101987421F2
:1042E000FCF750F8009840680199886600980078BB
:1042F000019981F86400009880680199C866009867
:10430000C06801990867019840F2E033C2F20003E7
:104310001A78511C197040F29041C2F2000141F824
:104320002200019800F002F802B080BD80B582B092
:1043300001900199886E91F86420FEF7C3FA019804
:10434000806EC06B0168086820F00800086002B049
:1043500080BD0000FFE7FEE781B08DF803009DF906
:10436000030000280ED4FFE79DF9031001F01F029F
:10437000012090404A094EF20011CEF2000141F8AE
:104380002200FFE701B070474EF60C50CEF200005D
:104390000068C0F30220704782B08DF807000091DA
:1043A0009DF9070000280AD4FFE7009800019DF955
:1043B00007104EF20042CEF2000288540BE0009843
:1043C00000019DF8071001F00F014EF61452CEF2D5
:1043D00000028854FFE702B07047000083B00290EB
:1043E000029800F0070000904EF60C51CEF200014A
:1043F0000868019001984FF6FF0210400190019863
:10440000009A40EA02200022C0F2FA5210430190C2
:104410000198086003B0704784B003908DF80B10CA
:10442000FF2001900020ADF80200FFE7BDF9020077
:104430009DF80B10884230DAFFE70398BDF90210AF
:10444000415C0198484001900020ADF80000FFE772
:10445000BDF90000072819DCFFE79DF804000006FD
:10446000002808D5FFE7019840000190019880F0EE
:104470001D00019003E0019840000190FFE7FFE775
:10448000BDF800000130ADF80000E1E7FFE7BDF83E
:1044900002000130ADF80200C8E79DF8040080F08A
:1044A000FF0004B07047000080B582B001908DF825
:1044B000031001989DF80310FFF7AEFF02B080BD16
:1044C00081B0ADF802009DF8030001B07047000014
:1044D00081B0ADF802009DF8020001B07047000005
:1044E000D0B502AF8AB08446B86807F809CC27F87F
:1044F0000C1C27F80E2C47F8143C27F8160C37F83C
:104500000C0C4004002804D4FFE7012007F8170C26
:1045100091E037F80C0C8004002804D4FFE7022057
:1045200007F8170C86E037F80C0CC004002804D4F8
:10453000FFE7032007F8170C7BE037F8161C022072
:1045400000EB410027F81A0C37F81A0C694647F8B7
:10455000201CC11D21F007026946891A47F82C1C4E
:104560008D4647F8301C47F8240C37F80E0CFFF73F
:10457000A7FF57F82C1C087037F80E0CFFF7A8FFA0
:1045800057F82C1C4870002027F8260CFFE737F856
:10459000260C37F8161C884225DAFFE757F8140C6A
:1045A00037F8261C30F81100FFF78AFF57F8301C47
:1045B00037F8262C01EB4201887057F8140C37F8B5
:1045C000261C30F81100FFF783FF57F8301C37F82E
:1045D000262C01EB4201C870FFE737F8260C0130AA
:1045E00027F8260CD3E737F80C0CFFF771FF0146CC
:1045F00057F8300C07F8271C17F81A1CFFF754FF60
:1046000007F8280C17F8280C17F8271C884204D143
:10461000FFE7002007F8170C07E0FF2007F8170C4A
:1046200017F8090C00F0DAFBFFE757F8200C854675
:10463000FFE7FFE7FFE717F8170CA7F10804A54607
:10464000D0BD000083B00290019101980299884288
:1046500005D2FFE702990198401A009004E0019802
:104660000299401A0090FFE7009803B070470000DD
:1046700080B584B08DF80E0002910020ADF80600E0
:104680009DF80E000DF1060100F06CFB8DF80500A1
:104690009DF8050028B1FFE79DF805008DF80F0093
:1046A00016E0BDF9060001F0F3F841EC100B9FEDA8
:1046B0000A1B53EC112B51EC100B01F079F941EC72
:1046C000100B029880ED000B00208DF80F00FFE723
:1046D0009DF80F0004B080BD000000000080863F00
:1046E00080B582B08DF8070000919DF80700009911
:1046F00000F0FCFA02B080BD80B5A4B000201E908E
:104700002390FCF7EBFDFFF793F9FEF7D1FEFEF7E0
:1047100083FEFEF789FFFEF73DFFFEF765FF1E985B
:104720004EF6FC52CEF20002116841F08071116029
:1047300041F20401CEF20001086041F20001CEF224
:104740000001086840F00100086040F2E431C2F264
:1047500000011D9140F29830C2F2000048606420D0
:104760001C90087043F2C530C0F60000886040F22B
:104770007000C2F20000FFF7ADFD1C981D9940F2D9
:104780005032C2F200024A60087040F2E400C2F205
:104790000000FFF79FFD1E98FFF7B2F91E98FFF784
:1047A000AFF9FFE700F078FB40F25811C2F20001C8
:1047B00000201890FFF75CFF014618988DF88B10C9
:1047C00040F25841C2F20001FFF78AFF8DF88A00DB
:1047D00040F26011C2F2000101201990FFF748FF7A
:1047E000014619988DF8891040F25A41C2F2000131
:1047F000FFF776FF8DF8880041F20400CEF200004A
:10480000006840F27841C2F200011A91086040F25B
:104810007440C2F200001B9000680968FFF712FFA5
:104820001A991B9A034640F27C40C2F200000360D2
:104830000968116090ED000AB8EE400A9FEDF21A87
:1048400080EE010A8DED210A9DF88B00002840F0D2
:10485000CC81FFE79DF88A00002840F0C681FFE781
:104860009DF88900002840F0C081FFE79DF888008E
:10487000002840F0BA81FFE740F25810C2F2000071
:1048800090ED000B40F26810C2F2000080ED000BCA
:1048900090ED000B9FEDD81B53EC112B51EC100B3E
:1048A00001F0B2FAC8B9FFE740F26810C2F20000A6
:1048B000169090ED000B9FEDD21B53EC112B51EC99
:1048C000100B00F099FD0246169817920A461799A8
:1048D00042EC101B80ED000BFFE740F26010C2F2CB
:1048E000000090ED000B40F27010C2F2000080ED6D
:1048F000000B90ED000B9FEDC01B53EC112B51EC06
:10490000100B01F081FAC8B9FFE740F27010C2F253
:104910000000149090ED000B9FEDB91B53EC112B90
:1049200051EC100B00F068FD0246149815920A46EF
:10493000159942EC101B80ED000BFFE740F2584048
:10494000C2F20000B0F9000000EE100AB8EEC00A92
:104950009FEDAE1A8DED131A20EE010A10EE100A2B
:1049600001F012FA41EC110B40F26810C2F20000A3
:1049700090ED000B51EC110B53EC102B00F03CFDB3
:104980009DED131A41EC100B40F28040C2F2000082
:1049900080ED000B40F25A40C2F20000B0F9000076
:1049A00000EE100AB8EEC00A20EE010A10EE100A5E
:1049B00001F0EAF941EC110B40F27010C2F2000074
:1049C00090ED000B51EC110B53EC102B00F014FD8B
:1049D00041EC100B40F28840C2F2000080ED000B69
:1049E00040F20400C2F200000078002840F0D880B5
:1049F000FFE79DED210AB5EE400AF1EE10FA40F313
:104A0000CF80FFE740F28040C2F200000A9090EDB4
:104A1000000B8DED000B40F2F430C2F200000B9061
:104A2000006801F0B1F99DED001B41EC100B51EC59
:104A3000110B53EC102B01F0B9F841EC100B8DED7C
:104A4000020B219801F0A0F99DED021B41EC100B27
:104A500051EC110B53EC102B00F082FD41EC100BCC
:104A600051EC100B00F096FC40F24841C2F20001FC
:104A70000991086040F28840C2F200000E9090ED6B
:104A8000000B8DED040B40F2F830C2F200000F90E5
:104A9000006801F079F99DED041B41EC100B51EC1D
:104AA000110B53EC102B01F081F841EC100B8DED44
:104AB000060B219801F068F99DED061B41EC100BE7
:104AC00051EC110B53EC102B00F04AFD41EC100B94
:104AD00051EC100B00F05EFC099B0A9984460B9880
:104AE00040F24C42C2F20002C2F800C093ED000A4C
:104AF000B1EE081A80EE010A40F25043C2F2000300
:104B000083ED000A92ED000A80EE010A40F2544261
:104B1000C2F2000282ED000A91ED000B8DED0C0B4C
:104B2000006801F031F99DED0C1B41EC100B51ECCC
:104B3000110B53EC102B01F039F841EC100B51EC38
:104B4000100B00F027FC0E9902460F98209291ED71
:104B5000000B8DED100B006801F016F99DED101B98
:104B600041EC100B51EC110B53EC102B01F01EF823
:104B700041EC100B51EC100B00F00CFC1F909DED64
:104B8000200ADDED1F0A40F2FC30C2F2000090ED79
:104B9000061AD0ED0C1A9DED212AFBF769FCFFE700
:104BA00040F28040C2F2000090ED000B51EC100B7F
:104BB00000F0F0FB40F2F431C2F20001086040F274
:104BC0008840C2F2000090ED000B51EC100B00F099
:104BD000E1FB40F2F831C2F20001086040F204014A
:104BE000C2F200010020087000E0FFE70520FCF79A
:104BF0004BF9D7E500BF00BF000000000000000037
:104C00000000000000807640001B374B0000B443DA
:104C100080B58AB08DF82600ADF8241008920020E7
:104C2000ADF81E00ADF81C00BDF82400ADF81A0068
:104C30009DF82600FEF786FF40F2F820C2F2000041
:104C400002900DF11A0101220492FF230193FDF756
:104C50000DFB019B049A029840F2000CC4F2020C76
:104C6000CDF80CC0DCF8001041F44041CCF8001045
:104C700007A90591FDF7D2F9019B049A02980DF15D
:104C80001E01FDF7CBF903990868022262F38F3009
:104C900008609DF82600FEF733FFDDF810C0059B85
:104CA0009DF82600BDF81E10BDF82420EE46CEF873
:104CB00000C0FFF715FC8DF819009DF8190040B1F0
:104CC000FFE70899002008809DF819008DF827005B
:104CD00007E0BDF81C000899088000208DF8270027
:104CE000FFE79DF827000AB080BD000080B584B0C2
:104CF0008DF80E0002910020ADF806009DF80E0020
:104D000048F241410DF10602FFF782FF8DF80500E0
:104D10009DF8050038B1FFE7002002909DF80500DE
:104D20008DF80F0019E0BDF806006FF35F20ADF8B5
:104D300006009DF80700C00738B1FFE7BDF8060080
:104D4000A0F50070ADF80600FFE7BDF80600029977
:104D5000088000208DF80F00FFE79DF80F0004B0D9
:104D600080BD000080B584B08DF80E000291002057
:104D7000ADF806009DF80E0048F221410DF1060243
:104D8000FFF746FF8DF805009DF8050038B1FFE7F5
:104D9000002002909DF805008DF80F001AE0BDF884
:104DA00006006FF3DF30ADF806009DF807004006FF
:104DB000002807D5FFE7BDF80600A0F50040ADF8D4
:104DC0000600FFE7BDF806000299088000208DF874
:104DD0000F00FFE79DF80F0004B080BD80B586B0DE
:104DE0008DF817000020ADF814009DF8170000F0B2
:104DF0002BF89DF81700FEF7A5FE48F20100ADF86C
:104E0000140040F2F820C2F20000049005A90191BC
:104E100001220292FF230393FDF728FA0199029AD7
:104E2000039B04984FF6FF7CADF814C0FDF71EFA03
:104E30000199029A039B0498FDF718FA9DF8170050
:104E4000FEF75EFE06B080BD80B584B08DF80F0021
:104E50000020C4F202000090202100220192FCF701
:104E600011FA009880210122FCF70CFA9DF80F003E
:104E7000FEF768FE01980290FFE70298952805DC8E
:104E8000FFE7FFE7029801300290F6E79DF80F0078
:104E9000FEF736FE04B080BD80B584B00020C4F2B9
:104EA00002000190202100220292FCF7EBF9019808
:104EB00080210122FCF7E6F9029A40F20040C4F298
:104EC00002004FF48041FCF7DDF90198029A1021AD
:104ED000FCF7D8F902980390FFE70398952805DCC2
:104EE000FFE7FFE7039801300390F6E740F2004048
:104EF000C4F202004FF4804101220092FCF7C2F993
:104F0000009A0020C4F202001021FCF7BBF904B0A3
:104F100080BD4100080218BF04200A0E18BF40F0EF
:104F200001004FF07F4232EA010108BF40F0020069
:104F3000012808BF0520704710EE101A08B5444A32
:104F40006846B2EB410F28D94FF0E640B0EB410F75
:104F500094BF00204FF0FF3000900098002861DBE4
:104F600060EE000A10F0010F45D010F0020FDFEDE7
:104F7000391A9FED391A00EEA11ADFED381A40EE0A
:104F8000811A21EEA01AF0EE400A40EE010A08BF95
:104F9000F1EE600AB0EE600A08BD314B21F000422C
:104FA00093423CD911F0004FDFED2E0A20EE201A7B
:104FB000DFED2D0A19BF31EE601A71EE200A31EED5
:104FC000201A71EE600ABDEEE01A11EE100A9FED94
:104FD000271A00F0030000EEC10A9FED251A009089
:104FE00000EEC10A9FED231A00EEC10A9FED221ABE
:104FF00000EEC10AB1E79FED211A9FED210A10F0E2
:10500000020F00EE810A9FED1F1A00EE801AB7EE24
:10501000000A00EE810A18BFB1EE400A08BD00F098
:105020000FF99AE710EE100A4000B0F17F4F3CBF35
:10503000B7EE000A08BD07D14FF00100FBF7D1F928
:10504000BDE8084000F0ECB8BDE8084000F0E4B866
:10505000B61F927E336D4CB9DA82083CA0AA2ABEF4
:10506000490E494683F9223F0000004B0000C93F2A
:1050700000A0FD390020A2331A61342CB93AB2BA2B
:10508000CA9F2A3DDDFFFFBE00B510EE101A2DEDC0
:10509000028B81B0524A6846B2EB410F2ED94FF0D5
:1050A000E640B0EB410F94BF00204FF0FF3000907E
:1050B0000098B0EE408A00286ADB10F0010F4BD058
:1050C00068EE080A9FED471A9FED470A00EE810A35
:1050D0009FED461A10F0020F00EE801AB7EE000A9C
:1050E00000EE810A02BF01B0BDEC028B00BD00BF23
:1050F00001B0B1EE400ABDEC028B00BD3C4B21F08B
:105100000042934241D911F0004FDFED3A0A20EE00
:10511000201ADFED390A19BF31EE601A71EE200A4C
:1051200031EE201A71EE600ABDEEE01A11EE100A9F
:105130009FED321A00F0030000EEC10A9FED301A15
:10514000009000EEC10A9FED2F1A00EEC10A9FEDFC
:105150002E1A00EEC10AABE728EE080A9FED2B1AC3
:10516000DFED2B0A10F0020F40EE010A9FED291A25
:1051700000EE201A61EE000AB0EE480A08EE200A9E
:10518000B6D101B0BDEC028B00BD00F059F88FE73D
:1051900018EE100A4000B0F17F4F0DD218EE100A41
:1051A000FFF7B7FE042808BF00F042F8B0EE480A47
:1051B00001B0BDEC028B00BD09D10120FBF711F954
:1051C00001B0BDEC028B5DF804EB00F029B801B032
:1051D000B0EE480ABDEC028B5DF804EB00F01CB8A1
:1051E000B61F927EB93AB2BACA9F2A3DDDFFFFBE12
:1051F000490E494683F9223F0000004B0000C93F99
:1052000000A0FD390020A2331A61342C336D4CB953
:10521000DA82083CA0AA2ABE30EE000A70470000DD
:10522000DFED020A80EEA00A7047000000000000D7
:105230009FED020A20EE000A7047000000000010F7
:105240002DE9F0014FF07F42B2EB410F9FBF4FF0CD
:10525000FF310160BDE8F00170474FF0004242EAC3
:105260000123C1F3C752783A551112F01F0C434C79
:10527000CCF120067C44C1F3C752A2F178024FEA78
:10528000621204EB820254F8254008BFD2E90156AD
:1052900012D0556804FA0CF425FA06F73C439768D7
:1052A00005FA0CF527FA06F8D26807FA0CFCF2406A
:1052B00045EA08054CEA0206A4FB034CA5FB035291
:1052C000A6FB03631D449D4234BF0126002613192B
:1052D000334416B1934202D903E0934201D2012232
:1052E00000E00022624402F1200C9206DC0C42EA4B
:1052F000443200EE102A5B03DFED210AF8EEC01AFB
:1053000000EE103A4FEA9C1C11F0004FB8EE400A34
:10531000C0F800C020EE201A00EE105ADFED190A86
:10532000B8EE400A20EE200A71EE810A70EE800A83
:1053300010EE902A02F500626FF30B0200EE902A45
:1053400070EEE11A31EEC11ADFED101A30EE411A9B
:105350009FED0D0A20EE800A01EE210A9FED0C1A46
:1053600000EE810A04BFBDE8F0017047CCF1805126
:105370000160BDE8F001B1EE400A70476C0C00001E
:10538000000000360000802C22AAFD29DB0FC92F67
:105390000000C92F21F0004201F00043A2F1605249
:1053A000B2F5801F28BFD2F17F6C0BD95FEA001CD9
:1053B00043EAC20242EB507018BF704728BF20F08A
:1053C00001007047B2F5801FBCBF184670474FEA16
:1053D000410C1CF5001F02D2084600F07DBD70B5DF
:1053E00000F090FB00000089FFF7F6BF4FF000408F
:1053F000A0F580007047000010B591EA030F48BF88
:1054000083F0004300F1DA83841A71EB030C05D2B8
:10541000121943EB0C03001B61EB0C014FEA115412
:10542000A4EB135CDFF81CE11EEA430F18BF9EEAF1
:10543000445F00F0748021EA045123EA0E0343F430
:105440008013DCF1200E32D322FA0CFE10EB0E009A
:1054500023FA0CFE41EB0E01CCF1200E03FA0EFEF6
:1054600010EB0E00CCF1200E51F10001B1F5801FC0
:1054700032D201EB045112FA0EF2BDE8104058BFCF
:105480007047401C38BF5FEA420218BF70470028CF
:1054900014BF20F0010041F100014FEA410313F570
:1054A000001F38BF7047A1F1C04100F079BB012A4D
:1054B00043EB0302ACF1200CDCF11F0E32BF4FF0C6
:1054C000000E23FA0CF310EB030041EB0451B4EB94
:1054D000115FD0D0A1EB045101F58011490801EB17
:1054E00004515FEA30000ED350F1000038BF12FAC9
:1054F0000EFE08D1BDE81040C9E7401C38BF5FEA86
:105500004202CAD1C3E7BDE810404FEA410313F598
:10551000001F38BF7047A1F1C04100F041BB9EEAB7
:10552000445F08D011EA5E0FBDE8104004BF01F0EF
:10553000004100207047BDE8104070B500F0E2FA6D
:1055400064FBBE3E0000E0FF491058BFC1F140417E
:105550005B1058BFC3F140438B42EFF300807047AC
:105560002DE9C04130B4DFF8A8C23CEA111418BFDD
:105570003CEA131400F0F0801CEA111481EA0305E0
:1055800044EAD57418BF1CEA131500F0CB80A4EBD5
:10559000050404F17F7404F500344FF0004545EA3A
:1055A000C12145EAC32341EA505143EA52534FEA2D
:1055B000C0204FEAC222994208BF904200F0A0806A
:1055C0004FEA13650FF24816765D4FEA134506FB66
:1055D00005F7C7F1807706FB07F74FEAD737A7FB38
:1055E00003687642A7FB06CEC8F5803838BFA8F11D
:1055F000010807FB08E6A6FB028C4FF0000EE6FB55
:1056000003CED8F100086FEA0C0C5CF1000C6FEAD5
:105610000E0E4EF1004EA6FB0C584FF00007E6FBB5
:105620000E87A1FB08C6A0FB07CE16EB0E064FF0B7
:10563000000545F10005E1FB076515F1E04E7EBF71
:10564000A4F580345FEA46066D4116F1800745F106
:1056500000054FEA172747EA05674FEA15254FEA85
:105660000666A6F1DE46B6F1805F20D9384605EB26
:10567000C47124F0010C01EB0C11BCF1FE6F02D8D7
:10568000F0BCBDE8008124425CBF01F5801E9EEAAB
:10569000C47F02D4F0BCBDE80081244200F139800F
:1056A000A1F1C041F0BCBDE8004100F079BA4FEA79
:1056B000D02040EA41504FEAD1214FEAD22242EABB
:1056C00043524FEAD323A7FB028607FB036605FB81
:1056D00002661EEA0E0F58BFA6EB0056B6EB005648
:1056E0004FEA520E4EEAC37E18EB0E0E56EB530EE7
:1056F000BCD518EB02085E417F1C55F10005B5E7EB
:105700004FF480154FF000074FF000064FF00008EF
:10571000ACE701F1C04101F000414FF00000F0BCE6
:10572000BDE800810CEA131511EA0C1F00D00CE053
:1057300013EA0C1F00F025804FF0000081EA0301FE
:1057400001F00041F0BCBDE80081F0BCBDE80041C3
:1057500081EA030100F024BAF0BCBDE8004170B555
:1057600000F0D0F9097EFC3E00F007B84FF00000D1
:1057700081EA030101F00041704781EA030100F072
:105780000FBAF0BCBDE8004122494FF0000070475D
:10579000FFFDFBF9F7F5F4F2F0EEEDEBE9E8E6E4F6
:1057A000E3E1E0DEDDDBDAD8D7D5D4D3D1D0CFCD7D
:1057B000CCCBCAC8C7C6C5C4C2C1C0BFBEBDBCBBB6
:1057C000BAB9B8B7B6B5B4B3B2B1B0AFAEADACABB1
:1057D000AAA9A8A8A7A6A5A4A3A3A2A1A09F9F9E8B
:1057E0009D9C9C9B9A99999897979695959493933D
:1057F000929191908F8F8E8E8D8C8C8B8B8A8989D4
:105800008888878786858584848383828281818056
:105810000000FF070000F87F51EA030C17D41CF5C5
:10582000801F58BFBCF5801F00F10680994218BF49
:10583000704708BF9042704707D711F5801F58BFC7
:1058400013F5801F19D499427047894270471CF59F
:10585000801F08D5BCF5801FF7D58B4218BF704755
:1058600008BF824270474FF4001C1CEB410F38BF49
:105870001CEB430F01D28B42704770B500F042F928
:10588000922449004FF000514FF08053FFF75CBE67
:1058900010F0004248BF4042B0FA80F310FA03F122
:1058A0000AD0C3F11D0303F5806302EB03524FEAF4
:1058B000415002EBD12170474FF0000070470000CB
:1058C00051EA030C17D41CF5801F58BFBCF5801F8C
:1058D00000F10680994218BF704708BF9042704798
:1058E00007D711F5801F58BF13F5801F19D49942AF
:1058F0007047894270471CF5801F08D5BCF5801F92
:10590000F7D58B4218BF704708BF824270474FF4EB
:10591000001C1CEB410F38BF1CEB430F01D28B4224
:10592000704770B500F0EEF8922449004FF08051B6
:105930004FF00053FFF708BE51EA030C17D41CF5D3
:10594000801F58BFBCF5801F00F10680994218BF28
:10595000704708BF9042704707D711F5801F58BFA6
:1059600013F5801F19D499427047894270471CF57E
:10597000801F08D5BCF5801FF7D58B4218BF704734
:1059800008BF824270474FF4001C1CEB410F38BF28
:105990001CEB430F01D28B42704770B500F0B2F898
:1059A000922449004FF000514FF08053FFF7CCBDD7
:1059B00070B5DFF848C11CEA111E1EBF1CEA1315A2
:1059C0009EEA0C0F95EA0C0F00F06F8081EA030449
:1059D0004EEAD47EAE4421EA4C1123EA4C1341F442
:1059E000801143F48013AEF17F7EA1FB024CA0FB3B
:1059F0000365361955EB0C05A1FB034C4CF1000374
:105A0000A0FB021C16EB0C06654153F10003094292
:105A100018BF46F0010613F4007F0BD14FEA0331A3
:105A20004FEA053041EA155140EA165034036FF051
:105A300003020AE04FEAC3214FEAC52041EA55516B
:105A400040EA5650F4026FF0020202EB2E4201EBE4
:105A5000025585EACE710AD05FEA440C18BF24F0E3
:105A6000004450F1000041F1000120EAD47040F2FE
:105A7000FE7C624500D270BDA84214BF4FF0804446
:105A80004FF04044002E08BF0024BEF1806FA8BF35
:105A9000A1F1C041BDE8704080F2828001F1C041B7
:105AA00001F000414FF0000070470CEA13159EEA28
:105AB0000C0F18BF95EA0C0F06D081EA030E4FF0C9
:105AC00000000EF0004170BD00F01CF88900013E9E
:105AD00000F007B800F009B84FEA430C5FEA5C5CDD
